:100000000C947C000C9490060C9469060C94DE060B
:100010000C94DE060C94DE060C94A4000C94A40050
:100020000C94A4000C94A4000C94A4000C94A400C0
:100030000C94A4000C94B7060C94A4000C94A40097
:100040000C941F060C94A4000C94C5040C949F04FB
:100050000C94A4000C94A4000C94A4000C94A40090
:100060000C94A4000C94A4000000000024002700BD
:100070002A0000000008000201000003040700003D
:10008000000000000000526570726F647563746F49
:100090007220646520617564696F20616C656174AC
:1000A0006F72696F2E2062793A204A6F6E617468B0
:1000B000616E2056617267617300000000002300CA
:1000C0002600290000000000250028002B00040461
:1000D00004040404040402020202020203030303F0
:1000E00003030102040810204080010204081020CC
:1000F000010204081020890B11241FBECFEFD8E0A5
:10010000DEBFCDBF12E0A0E0B1E0E4ECFFE102C051
:1001100005900D92AA32B107D9F723E0AAE2B2E026
:1001200001C01D92AB34B207E1F710E0CCE7D0E09C
:1001300004C02197FE010E94DE0DCB37D107C9F71D
:100140000E947C090C94E00F0C940000FC01538D7C
:10015000448D252F30E0842F90E0821B930B5417A1
:1001600010F0CF96089501970895FC01918D828D2E
:10017000981761F0828DDF01A80FB11D5D968C91FB
:10018000928D9F5F9F73928F90E008958FEF9FEF06
:100190000895FC01918D828D981731F0828DE80FC2
:1001A000F11D858D90E008958FEF9FEF0895FC017C
:1001B000918D228D892F90E0805C9F4F821B910949
:1001C0008F739927089586E992E00E94D70021E075
:1001D000892B09F420E0822F0895FC01848DDF0132
:1001E000A80FB11DA35ABF4F2C91848D90E00196AA
:1001F0008F739927848FA689B7892C93A089B18999
:100200008C91837080648C93938D848D981306C039
:100210000288F389E02D80818F7D80830895EF929D
:10022000FF920F931F93CF93DF93EC0181E0888FB0
:100230009B8D8C8D981305C0E889F989808185FD97
:1002400026C0F62E0B8D10E00F5F1F4F0F73112786
:10025000E02E8C8DE8120CC00FB607FCFACFE889AF
:10026000F989808185FFF5CFCE010E94ED00F1CFA5
:100270008B8DFE01E80FF11DE35AFF4FF0829FB70F
:10028000F8940B8FEA89FB89808180620AC09FB74E
:10029000F894EE89FF896083E889F9898081837009
:1002A000806480839FBF81E090E0DF91CF911F91B8
:1002B0000F91FF90EF900895CF93DF93EC01888D1D
:1002C0008823C9F0EA89FB89808185FD05C0A8895A
:1002D000B9898C9186FD0FC00FB607FCF5CF8081E0
:1002E00085FFF2CFA889B9898C9185FFEDCFCE012A
:1002F0000E94ED00E7CFDF91CF910895833081F028
:1003000028F4813099F08230A1F008958730A9F067
:100310008830B9F08430D1F4809180008F7D03C0A3
:10032000809180008F7780938000089584B58F77C7
:1003300002C084B58F7D84BD08958091B0008F7711
:1003400003C08091B0008F7D8093B00008953FB7C7
:10035000F8948091810290918202A0918302B091E1
:10036000840226B5A89B05C02F3F19F00196A11D58
:10037000B11D3FBFBA2FA92F982F8827820F911D3B
:10038000A11DB11DBC01CD0142E0660F771F881F82
:10039000991F4A95D1F708950895209187023091C9
:1003A00088022817390771F490918502809186029E
:1003B000981741F0E0918502F0E0E45CFD4F808108
:1003C00090E008958FEF9FEF089508951F93CF93C6
:1003D000DF93DC015C968D919C915D97009739F4D9
:1003E00021E030E013963C932E9312973BC0519638
:1003F000ED91FC91529750962C915097322F309559
:100400001FB75E964C915E97742F727041FD609598
:10041000F8944081772311F0422B01C0432340839D
:10042000EC012197F1F748E0508160FF02C0522BA8
:1004300001C053235083EC012197F1F76695415099
:1004400099F78081772319F08323808302C0282BBA
:1004500020831FBF5C968D919C915D970197F1F76A
:1004600081E090E0DF91CF911F9108952091870264
:10047000309188022817390771F480918602209103
:10048000850290E0805C9F4F821B910960E470E0E0
:100490000E94B60D089580E090E0089520918702B3
:1004A0003091880228173907B9F49091850280911C
:1004B0008602981789F0E0918502F0E0E45CFD4F38
:1004C00080812091850230E02F5F3F4F2F733327CB
:1004D0002093850290E008958FEF9FEF089508958F
:1004E00080E090E0089520919202309193028091F3
:1004F0000B0190910C012817390744F081E080939B
:1005000095021092930210929202089580919202A5
:100510009091930201969093930280939202089592
:100520000E94CB0F8F929F92AF92BF92CF92DF9299
:10053000EF92FF92CF93DF9386E992E00E94D7007B
:10054000892B09F4EBC186E992E00E94B50086365A
:1005500009F0D5C180913A0290913B029C012F5F36
:100560003F4F30933B0220933A02FC01E05DFD4F88
:10057000108210923B0210923A028091300289362A
:1005800009F0AFC1809131028836F1F52091320235
:10059000022E000C330B205331094091330280911D
:1005A00034022A30310560F5042E000C550B4053FF
:1005B00051099AE0949FE001959FD00D112494E693
:1005C000929FA001939F500D1124C40FD51F082E98
:1005D000000C990BC097C80FD91F8091050190910D
:1005E00006016C2F0E940E0D83E491E00E94140816
:1005F000CE010E945609D0938F02C0938E0204C090
:1006000086E591E00E941408809131028C36F1F564
:1006100020913202022E000C330B205331094091FD
:100620003302809134022A30310560F5042E000C2B
:10063000550B405351099AE0949FE001959FD00DCE
:10064000112494E6929FA001939F500D1124C40F92
:10065000D51F082E000C990BC097C80FD91F809189
:100660000701909108016C2F0E940E0D89E691E020
:100670000E941408CE010E945609D0939102C093A3
:10068000900204C086E591E00E9414088091310236
:10069000843709F049C020913202022E000C330B3E
:1006A00020533109409133028091340224303105C6
:1006B00008F04EC0042E000C550B405351099AE02F
:1006C000949FE001959FD00D112494E6929FA00184
:1006D000939F500D1124C40FD51F082E000C990BA9
:1006E000C097C80FD91F80910D0190910E016C2FFA
:1006F0000E940E0D8CE791E00E941408BE010D2EA1
:10070000000C880B990BD7FF03C00E94350903C06A
:100710004AE00E94F4088FE891E00E946E09D093AD
:100720000C01C0930B01FAC080913102863709F0A9
:1007300047C080913202082E000C990BC097C091DF
:1007400033020C2E000CDD0BE0978430910570F025
:1007500086E591E0DF91CF91FF90EF90DF90CF9011
:10076000BF90AF909F908F900C9414084AE0489FE0
:100770009001499F300D1124C20FD31FCF31D105F5
:1007800014F0CEE1D0E08091090190910A016C2F24
:100790000E940E0D88E991E00E941408CE010E948B
:1007A00056094C2F60E086E00E94160840E060E0A9
:1007B00083E40E941608D0931401C0931301AEC0C5
:1007C00080913102833699F48CEA91E00E946E099F
:1007D00040E060E08CE4DF91CF91FF90EF90DF90FC
:1007E000CF90BF90AF909F908F900C9416088091FF
:1007F0003102813649F48EEB91E00E941408809119
:100800000F019091100161C080913102803709F091
:100810004FC0C0908E02D0908F028FEFC81AD80AB6
:100820000D2C000CEE08FF08809090029090910231
:10083000092C000CAA08BB088C149D04AE04BF044C
:100840009CF4C818D908EA08FB0839F00E94850C06
:10085000A70196010E941C0D03C060E070E0CB016F
:10086000860E971EA81EB91E20910F01309110010F
:100870008216930671F220911101309112018216B5
:10088000930639F280911101909112019093100119
:1008900080930F01909212018092110180910F01BB
:1008A000909110010E94560981E08093940236C015
:1008B000809131028E3691F540E060E088E40E943C
:1008C00016088091330390913403DF91CF91FF900C
:1008D000EF90DF90CF90BF90AF909F908F900C944F
:1008E000560982ED91E0DF91CF91FF90EF90DF907C
:1008F000CF90BF90AF909F908F900C946E092091F5
:100900003A0230913B02A9014F5F5F4F50933B0287
:1009100040933A02F901E05DFD4F8083DF91CF9172
:10092000FF90EF90DF90CF90BF90AF909F908F900F
:1009300008950E94E30081110C94920208951F9281
:100940000F920FB60F9211242F933F934F935F9303
:100950006F937F938F939F93AF93BF93EF93FF9387
:1009600086E992E00E94ED00FF91EF91BF91AF9177
:100970009F918F917F916F915F914F913F912F91B7
:100980000F900FBE0F901F9018951F920F920FB6E9
:100990000F9211242F938F939F93EF93FF93E091E6
:1009A000A602F091A7028081E091AC02F091AD0225
:1009B00082FD12C090818091AF028F5F8F73209172
:1009C000B002821751F0E091AF02F0E0EA56FD4F1D
:1009D000958F8093AF0201C08081FF91EF919F912D
:1009E0008F912F910F900FBE0F901F9018951F930E
:1009F000CF93DF93282F30E0F901EE58FF4F849119
:100A0000F901EE51FF4FD491F901E253FF4FC49128
:100A1000CC23C1F0162F81110E947E01EC2FF0E053
:100A2000EE0FFF1FEC53FF4FA591B4919FB7F894C1
:100A3000111104C08C91D095D82302C0EC91DE2B0B
:100A4000DC939FBFDF91CF911F910895CF93DF93E8
:100A500090E0FC01EE51FF4F2491FC01E253FF4F67
:100A60008491882361F190E0880F991FFC01E85977
:100A7000FF4FC591D491FC01EC53FF4FA591B49168
:100A8000611109C09FB7F8948881209582238883DB
:100A9000EC912E230BC0623061F49FB7F8948881EB
:100AA000322F309583238883EC912E2B2C939FBF7C
:100AB00006C08FB7F894E8812E2B28838FBFDF9173
:100AC000CF9108958F929F92AF92BF92CF92DF9273
:100AD000EF92FF926B017C010E94A7014B015C0128
:100AE000C114D104E104F104F1F00E94A701DC017A
:100AF000CB0188199909AA09BB09883E9340A10531
:100B0000B10570F321E0C21AD108E108F10888EEBE
:100B1000880E83E0981EA11CB11CC114D104E1040D
:100B2000F10419F7DDCFFF90EF90DF90CF90BF90E9
:100B3000AF909F908F9008958F929F92AF92BF92A7
:100B4000CF92DF92EF92FF92CF9364E170E080E06A
:100B500090E00E946205E4E7F0E08491E4EEF0E0CA
:100B6000F490E0EDF0E0C491CC2379F081110E9483
:100B70007E01EC2FF0E0EE0FFF1FE654FF4FA59132
:100B8000B491EC91EF2181E009F480E081708093D1
:100B90002F0280912F02811148C0C0908E02D09008
:100BA0008F028FEFC81AD80A0D2C000CEE08FF0830
:100BB0008090900290909102092C000CAA08BB082A
:100BC0008C149D04AE04BF049CF4C818D908EA082C
:100BD000FB0839F00E94850CA70196010E941C0DAC
:100BE00003C060E070E0CB01860E971EA81EB91E00
:100BF00020910F01309110018216930671F220911D
:100C00001101309112018216930639F2809111017F
:100C1000909112019093100180930F019092120114
:100C20008092110181E080939402CF91FF90EF9028
:100C3000DF90CF90BF90AF909F908F9008951F92BC
:100C40000F920FB60F9211242F933F938F939F9380
:100C5000AF93BF9380917D0290917E02A0917F021D
:100C6000B091800230917C0223E0230F2D3720F4D5
:100C70000196A11DB11D05C026E8230F0296A11DF6
:100C8000B11D20937C0280937D0290937E02A093FD
:100C90007F02B09380028091810290918202A091A4
:100CA0008302B09184020196A11DB11D809381023F
:100CB00090938202A0938302B0938402BF91AF917C
:100CC0009F918F913F912F910F900FBE0F901F908A
:100CD00018951F920F920FB60F9211242F933F93E6
:100CE0004F935F936F937F938F939F93AF93BF9334
:100CF000EF93FF93E0910301F09104010995FF91B7
:100D0000EF91BF91AF919F918F917F916F915F9183
:100D10004F913F912F910F900FBE0F901F901895FC
:100D20001F920F920FB60F9211242F933F934F9360
:100D30005F936F937F938F939F93AF93BF93EF9343
:100D4000FF93E0910101F09102010995FF91EF916C
:100D5000BF91AF919F918F917F916F915F914F91D3
:100D60003F912F910F900FBE0F901F9018951F92DB
:100D70000F920FB60F9211242F933F934F935F93CF
:100D80006F937F938F939F93AF93BF93EF93FF9353
:100D9000E0918902F0918A020995FF91EF91BF914C
:100DA000AF919F918F917F916F915F914F913F9103
:100DB0002F910F900FBE0F901F9018951F920F92BA
:100DC0000FB60F9211242F933F934F935F936F931E
:100DD0007F938F939F93AF93BF93EF93FF93E09194
:100DE0008702F0918802309709F451C0968DA6854C
:100DF000B785858591FF04C09C91892329F447C05C
:100E00009C91892309F043C0A389B4899C91858969
:100E1000809589238C93868997890197F1F7608D56
:100E2000718DA685B785558538E020E0CB01019707
:100E3000F1F7822F90E095958795282F4C914523C7
:100E400009F02068315091F7868D81FD20958091C1
:100E5000860290E001968F739927309185023817AA
:100E600049F0A0918602B0E0A45CBD4F2C93809322
:100E7000860203C0868D8160868F828D938D019757
:100E8000F1F7A389B4899C918589892B8C93FF9173
:100E9000EF91BF91AF919F918F917F916F915F91F2
:100EA0004F913F912F910F900FBE0F901F9018956B
:100EB000CF92DF92EF92FF920F931F93CF93DF9326
:100EC0006C017A018B01C0E0D0E0CE15DF0581F026
:100ED000D8016D918D01D601ED91FC910190F081C9
:100EE000E02DC6010995892B11F02196EECF7E01E8
:100EF000C701DF91CF911F910F91FF90EF90DF908D
:100F0000CF9008950F931F93CF93DF93EC018881C7
:100F10009981009729F02A813B812617370788F4A9
:100F20008B016F5F7F4F0E94050F009761F09983DF
:100F300088831B830A832C813D81232B11F4FC01C0
:100F4000108281E001C080E0DF91CF911F910F916D
:100F50000895EF92FF920F931F93CF93DF93611544
:100F6000710511F480E01CC041155105C1F07B01F1
:100F7000EC018C819D818A01080F191FB801CE01F7
:100F80000E948207882371F3288139818C819D8199
:100F9000B701820F931F0E94D90F1D830C8381E03C
:100FA000DF91CF911F910F91FF90EF900895EF92F5
:100FB000FF920F931F93CF93DF93EC017B018A0184
:100FC000BA010E9482072881398181110DC0211543
:100FD000310519F0C9010E947C0E198218821D8208
:100FE0001C821B821A8206C01D830C83B701C901B3
:100FF0000E94D90FCE01DF91CF911F910F91FF90E9
:10100000EF900895009769F0FC0101900020E9F746
:101010003197AF01481B590BBC0186E992E00C9453
:10102000580780E090E008950C940208BF92CF9298
:10103000DF92EF92FF920F931F93CF93DF93CDB781
:10104000DEB7A3970FB6F894DEBF0FBECDBFD82E84
:10105000E62EF42E8E01065F1F4F88E0D8011D9208
:101060008A95E9F71F8E1E8E19A218A21BA21AA23A
:1010700040E050E06BEE71E0CE014E960E94D70743
:1010800064E170E080E090E00E9462058EE78A876C
:101090008FEF8B8786E08C87DD8681E08E87EF86F9
:1010A000F88A8FEE898B6E01B2E1CB0ED11CFE0166
:1010B00031967F018091360390913703D801BD901E
:1010C0008D01DC01ED91FC910190F081E02D6B2D03
:1010D0000995198E188E1B8E1A8E1D8E1C8E40E05F
:1010E00050E06BEE71E0CE0148960E94D70742E0D7
:1010F00050E06AE172E0CE0148960E94D707BFE057
:10110000BB1540F041E050E06DE172E0CE01489641
:101110000E94A9071B8A1A8A1D8A1C8A1F8A1E8A96
:1011200040E1B7018B2D90E00E94DC0CF7010190AB
:101130000020E9F73197AF014E195F09B701C601E9
:101140000E94D7074E895F896A897B89CE014896BC
:101150000E94A9078A899B890E947C0E41E050E089
:101160006CEF71E0CE0148960E94A9074C8D5D8D11
:10117000688D798DCE014E960E94A907888D998D34
:101180000E947C0EC016D10609F094CF80913503E1
:10119000882381F08FE192E00E9414084AA15BA1AC
:1011A0006E8D7F8D86E992E00E94580789EE91E06E
:1011B0000E94020868EE73E080E090E00E94620501
:1011C0008E8D9F8D0E947C0EA3960FB6F894DEBF85
:1011D0000FBECDBFDF91CF911F910F91FF90EF9088
:1011E000DF90CF90BF9008958F929F92AF92BF9261
:1011F0000F931F93CF93DF93CDB7DEB7A1970FB6B1
:10120000F894DEBF0FBECDBF19A2423008F44AE009
:101210008E010F5D1F4F842E912CA12CB12CA501A6
:1012200094010E94850DE62FB901CA0101501109F0
:10123000EA3014F4E05D01C0E95CD801EC93232BA3
:10124000242B252B61F7C8010E940208A1960FB636
:10125000F894DEBF0FBECDBFDF91CF911F910F91EC
:10126000BF90AF909F908F900895CF92DF92EF92B2
:10127000FF92CF93DF936B017C016DE286E992E0F0
:101280000E940F01EC0166277727CB016C197D09BD
:101290008E099F094AE00E94F4088C0F9D1FDF9180
:1012A000CF91FF90EF90DF90CF900895CF93DF9391
:1012B000BC01990F880B990B97FF03C00E94350959
:1012C00003C04AE00E94F408EC0189EE91E00E941C
:1012D00002088C0F9D1FDF91CF910895CF93DF936C
:1012E0000E940208EC0189EE91E00E9402088C0F36
:1012F0009D1FDF91CF910895789484B5826084BD5D
:1013000084B5816084BD85B5826085BD85B5816009
:1013100085BD80916E00816080936E001092810087
:101320008091810082608093810080918100816042
:101330008093810080918000816080938000809103
:10134000B10084608093B1008091B000816080938F
:10135000B00080917A00846080937A0080917A0056
:10136000826080937A0080917A00816080937A0015
:1013700080917A00806880937A001092C10083E0A7
:101380008093000180EC80937C0080917A008064DF
:1013900080937A0080917A0086FDFCCF609178007E
:1013A0008091790070E0782B072E000C880B990B48
:1013B000611571058105910511F00E94D30C62E061
:1013C00082E00E94260561E08DE00E942605809162
:1013D0000D0190910E010E94060D90E090930C017A
:1013E00080930B01E091A602F091A70282E0808336
:1013F000E091A202F091A3021082E091A402F09188
:10140000A50287E680831092AE02E091AA02F091D5
:10141000AB0286E08083E091A802F091A90280816E
:1014200080618083E091A802F091A90280818860A8
:101430008083E091A802F091A90280818068808376
:10144000E091A802F091A90280818F7D8083E091D4
:101450003603F0913703138E128E118E108E178A79
:10146000168A8DE991E0958F848F9485963108F0E6
:101470004EC02DEB30E0378B268B2BE931E0318FDE
:10148000208F2CE231E0338F228F3091680098302A
:1014900058F021E09E3008F420E091E0892F01C04F
:1014A000880F2A95EAF701C084E0832B80936800B7
:1014B0009485983038F09E3040F0963148F020E026
:1014C00030E008C02DE630E005C02BE630E002C079
:1014D0002CE630E0348B238B983030F481E001C06F
:1014E000880F9A95EAF70EC0292F30E09E3018F445
:1014F0002850310902C02E50310981E001C0880F07
:101500002A95EAF7858B848D958D0197F1F7828D69
:10151000938D892B21F1A0918702B0918802EA175F
:10152000FB07E9F0109751F05396CD91DC91549759
:10153000988155968C91809589238883868D8E7F9E
:10154000868F1092860210928502F0938802E093B3
:101550008702A389B4899C918589892B8C9340E06B
:1015600060E088E40E94160864EF71E080E090E09B
:101570000E94620542E060E089E00E941608C6E829
:10158000D0E0FE016491611198C089EE91E00E9463
:1015900002088091090190910A010E94060D90E0D5
:1015A0009093140180931301409113015091140101
:1015B00060E086E00E94160840E060E083E40E945C
:1015C000160880910701909108010E94060D90E095
:1015D0009093910280939002809105019091060171
:1015E0000E94060D90E090938F0280938E028CEE05
:1015F00091E00E94140880910B0190910C010E94CF
:1016000056098EEF91E00E94140880911301909189
:1016100014010E94560988E092E00E94140880910B
:101620009002909191020E94560981E192E00E94FD
:10163000140880918E0290918F020E9456098CE9C5
:1016400095E09093020180930101809169008C7F65
:10165000826080936900E89A80E180938100109213
:10166000800084E080938D0282E19AE790938C025F
:1016700080938B02909387008093860084E180930F
:10168000810083E792E090938A028093890281E04F
:1016900080936F0068EE73E080E090E00E94620546
:1016A00060911301709114014CE082E20E941608CF
:1016B00061E08DE00E94F70420C086E992E00E947C
:1016C0000F012196892B09F05CCF5FCF80919402A6
:1016D000882389F010929402109293021092920241
:1016E000609113017091140140910F01509110010C
:1016F00082E20E9416080E94990480919502882334
:1017000029F31092950240E060E086E10E941608FD
:10171000DDCFCF92DF92EF92FF92CF93DF931092C3
:1017200099021092980298EEC92E93E0D92EE12CDE
:10173000F12CC0929A02D0929B02E0929C02F0920D
:101740009D0283E291E0909397028093960285EC4C
:1017500090E09093A3028093A20284EC90E0909397
:10176000A5028093A40280EC90E09093A70280935E
:10177000A60281EC90E09093A9028093A80282ECEB
:1017800090E09093AB028093AA0286EC90E0909355
:10179000AD028093AC021092AF021092B002109290
:1017A000B1021092B2028FE0E8E3F3E0DF011D9294
:1017B0008A95E9F78FE190E00E94E40DEC011B822D
:1017C0001A82CC82DD82EE82FF8285E391E09983EA
:1017D00088831F8A1E8A198E188E1B8E1A8E1D8E64
:1017E0001C8E6E8D6E7F6D7F6E8F6695617081E051
:1017F00068278BE00E94F70461E08BE00E942605D9
:10180000EDEEF0E0E491E88BE9EDF0E0E491F0E05A
:10181000EE0FFF1FEC53FF4F859194919A8B898BAC
:1018200060E08AE00E9426058E8D81FD04C061E0A3
:101830008AE00E94F7048AE08C87ECEEF0E0E49105
:10184000ED87E8EDF0E0E491F0E0EE0FFF1FE654E5
:10185000FF4F859194919F878E87D0933703C093D4
:10186000360310923503DF91CF91FF90EF90DF9018
:10187000CF9008958F929F92AF92BF92CF92DF92B6
:10188000EF92FF92CF93DF93EC01688179818A8197
:101890009B81611571058105910521F464E279ED63
:1018A0008BE597E02DE133EF41E050E00E941C0D05
:1018B00049015A019B01AC01A7EAB1E40E943B0D2A
:1018C0006B017C01ACEEB4EFA50194010E94490DBF
:1018D000DC01CB018C0D9D1DAE1DBF1DB7FF03C0EC
:1018E0000197A109B04888839983AA83BB83BC016F
:1018F000CD019F77DF91CF91FF90EF90DF90CF9058
:10190000BF90AF909F908F9008958F929F92AF92CB
:10191000BF92CF92DF92EF92FF926091150170918A
:1019200016018091170190911801611571058105CB
:10193000910521F464E279ED8BE597E02DE133EF39
:1019400041E050E00E941C0D49015A019B01AC018D
:10195000A7EAB1E40E943B0D6B017C01ACEEB4EF51
:10196000A50194010E94490DDC01CB018C0D9D1D48
:10197000AE1DBF1DB7FF03C00197A109B0488093FA
:10198000150190931601A0931701B0931801BC01A3
:10199000CD019F77FF90EF90DF90CF90BF90AF90F9
:1019A0009F908F9008956093150170931601809316
:1019B0001701909318010895BB27FB015527AA270B
:1019C000880F991FAA1FA41710F0A41B83955051CC
:1019D000B9F7A05DAA3308F0A95DA193009779F744
:1019E000B111B1931192CB010C94F60CDC01FC0106
:1019F000672F71917723E1F7329704C07C916D9343
:101A000070836291AE17BF07C8F30895F999FECFAE
:101A100092BD81BDF89A992780B50895262FF9992E
:101A2000FECF1FBA92BD81BD20BD0FB6F894FA9AC1
:101A3000F99A0FBE01960895052E97FB1EF40094A7
:101A40000E94330D57FD07D00E94850D07FC03D07F
:101A50004EF40C94330D50954095309521953F4FA1
:101A60004F4F5F4F089590958095709561957F4F8A
:101A70008F4F9F4F08950E94A70DA59F900DB49F73
:101A8000900DA49F800D911D11240895B7FF0C9413
:101A90003B0D0E943B0D821B930B08952F923F92AA
:101AA0004F925F926F927F928F929F92AF92BF926E
:101AB000CF92DF92EF92FF920F931F93CF93DF931A
:101AC000CDB7DEB7CA1BDB0B0FB6F894DEBF0FBE77
:101AD000CDBF09942A88398848885F846E847D84C4
:101AE0008C849B84AA84B984C884DF80EE80FD80C6
:101AF0000C811B81AA81B981CE0FD11D0FB6F8943C
:101B0000DEBF0FBECDBFED010895A1E21A2EAA1BC4
:101B1000BB1BFD010DC0AA1FBB1FEE1FFF1FA2179D
:101B2000B307E407F50720F0A21BB30BE40BF50B9A
:101B3000661F771F881F991F1A9469F76095709523
:101B4000809590959B01AC01BD01CF010895A29FA6
:101B5000B001B39FC001A39F700D811D1124911D81
:101B6000B29F700D811D1124911D089597FB072EC2
:101B700016F4009407D077FD09D00E94CA0D07FC27
:101B800005D03EF4909581959F4F0895709561958D
:101B90007F4F0895AA1BBB1B51E107C0AA1FBB1FA3
:101BA000A617B70710F0A61BB70B881F991F5A95E9
:101BB000A9F780959095BC01CD010895EE0FFF1F08
:101BC0000590F491E02D09940F931F93CF93DF9329
:101BD0008230910510F482E090E0E0914903F091A9
:101BE0004A0320E030E0A0E0B0E0309719F14081F6
:101BF00051810281138148175907C8F0841795074E
:101C000069F4109731F012960C93129713961C9367
:101C100027C00093490310934A0322C021153105C0
:101C200019F04217530718F49A01BD01EF01DF01C3
:101C3000F801DBCF21153105F9F0281B390B2430D1
:101C4000310580F48A819B816115710521F0FB01CA
:101C50009383828304C090934A0380934903FE01D7
:101C6000329644C0FE01E20FF31F819391932250FC
:101C70003109398328833AC02091470330914803C2
:101C8000232B41F420911B0130911C013093480318
:101C9000209347032091190130911A012115310534
:101CA00041F42DB73EB740911D0150911E01241BF8
:101CB000350BE0914703F0914803E217F307A0F4D6
:101CC0002E1B3F0B2817390778F0AC014E5F5F4F92
:101CD0002417350748F04E0F5F1F50934803409379
:101CE00047038193919302C0E0E0F0E0CF01DF91E0
:101CF000CF911F910F910895CF93DF93009709F42F
:101D000081C0FC01329713821282A0914903B091E5
:101D10004A03109781F420813181820F931F209113
:101D20004703309148032817390751F5F0934803CA
:101D3000E093470367C0ED0120E030E0CE17DF07F6
:101D400040F44A815B819E0141155105F1F0EA01A1
:101D5000F5CFD383C28340815181840F951FC8176B
:101D6000D90759F488819981840F951F0296918330
:101D700080838A819B81938382832115310529F495
:101D8000F0934A03E09349033DC0E901FB83EA83F2
:101D900049915991C40FD51FEC17FD0761F480815B
:101DA0009181840F951F0296E9019983888382812E
:101DB00093819B838A83E0E0F0E012968D919C9161
:101DC0001397009719F0FD01DC01F7CF8D919C91DD
:101DD00011979D012E5F3F4F820F931F2091470364
:101DE000309148032817390769F4309729F4109285
:101DF0004A031092490302C013821282B09348032F
:101E0000A0934703DF91CF910895A0E0B0E0EBE00D
:101E1000FFE00C94520DEC01009721F4CB010E94DD
:101E2000E40DB4C0FC01E60FF71F9C0122503109FC
:101E3000E217F30708F4A8C0D9010D911C9111977E
:101E400006171707B0F00530110508F49BC0C8014C
:101E500004978617970708F495C002501109061BCE
:101E6000170B019311936D937C93CF010E947C0E0D
:101E700089C05B01A01AB10A4C01800E911EA0918D
:101E80004903B0914A03612C712CE12CF12C10977D
:101E900009F446C08D919C911197A815B905B1F52B
:101EA0006C0142E0C40ED11CCA14DB0478F14C0171
:101EB0008A189B08640142E0C40ED11C1296BC90A3
:101EC00012971396AC91B5E0CB16D10440F0B282D4
:101ED000A38391828082D9016D937C9309C00E5FA8
:101EE0001F4F800F911FF90191838083EB2DFA2FF3
:101EF000E114F10431F0D7011396FC93EE9312979D
:101F000041C0F0934A03E09349033CC06816790648
:101F100008F43C017D0112960D90BC91A02DB7CF25
:101F2000809147039091480388169906E1F466165C
:101F30007706C8F48091190190911A01009741F435
:101F40008DB79EB740911D0150911E01841B950BCA
:101F5000E817F907C8F4F0934803E0934703F90141
:101F6000718360830FC0CB010E94E40D7C01009758
:101F700059F0A801BE010E94D00FCE010E947C0E34
:101F8000C70104C0CE0102C080E090E0CDB7DEB74B
:101F9000EEE00C946E0D81E090E0F8940C94E00F6C
:101FA000FB01DC0102C001900D9241505040D8F776
:101FB0000895FB01DC0101900D920020E1F70895E6
:041FC000F894FFCFC3
:101FC40001CC01CC010600050001003C0003000126
:101FD40000020014000100000000004B0380000018
:101FE4000000000F015807A6005C01D700B500C926
:101FF4000000000000E60158077002E50136024EB9
:1020040002CD014D6178696D6F20616C6561746FFB
:1020140072696F3A200056616C6F7220696E636F4B
:1020240072726563746F2121004D696E696D6F2052
:10203400616C6561746F72696F3A200043616D620F
:10204400696F206465207469656D706F3A20007350
:102054006567756E646F730043616D62696F2064B8
:102064006520766F6C756D656E3A200043616E6312
:1020740069C3B36E2061637475616C3A20004EC30A
:10208400BA6D65726F20616C6561746F72696F3AC5
:10209400200070726F746F636F6C6F206571756967
:1020A400766F6361646F2121000D0A005469656DC8
:1020B400706F20646520636F7274653A2000566FF8
:1020C4006C756D656E3A20004D696E696D6F3A20CE
:1020D400004D6178696D6F3A20003058003000532C
:0A20E400656E64696E673A20000023
:107800000C94343C0C94513C0C94513C0C94513CE1
:107810000C94513C0C94513C0C94513C0C94513CB4
:107820000C94513C0C94513C0C94513C0C94513CA4
:107830000C94513C0C94513C0C94513C0C94513C94
:107840000C94513C0C94513C0C94513C0C94513C84
:107850000C94513C0C94513C0C94513C0C94513C74
:107860000C94513C0C94513C11241FBECFEFD8E036
:10787000DEBFCDBF11E0A0E0B1E0ECE9FFE702C060
:1078800005900D92A230B107D9F712E0A2E0B1E065
:1078900001C01D92AD30B107E1F70E942D3D0C945F
:1078A000CC3F0C94003C982F959595959595959582
:1078B000905D8F708A307CF0282F295A8091C0000B
:1078C00085FFFCCF9093C6008091C00085FFFCCF60
:1078D0002093C6000895282F205DF0CF982F809127
:1078E000C00085FFFCCF9093C6000895EF92FF92F1
:1078F0000F931F93EE24FF2487018091C00087FD22
:1079000017C00894E11CF11C011D111D81E4E8164B
:1079100082E4F8068FE0080780E0180770F3E09132
:107920000401F091050109958091C00087FFE9CF1E
:107930008091C6001F910F91FF90EF9008950E94D3
:10794000763C982F8091C00085FFFCCF9093C600B5
:1079500091362CF490330CF09053892F089597555D
:10796000892F08951F930E949F3C182F0E949F3CCF
:107970001295107F810F1F9108951F93182F882350
:1079800021F00E94763C1150E1F71F9108951F935A
:10799000182F0E94763C803249F0809103018F5F5E
:1079A000809303018530C1F01F9108958091C0003C
:1079B00085FFFCCF84E18093C6008091C00085FFE5
:1079C000FCCF1093C6008091C00085FFFCCF80E102
:1079D0008093C6001F910895E0910401F091050184
:1079E00009951F9108950E94763C803241F0809164
:1079F00003018F5F80930301853081F008958091AA
:107A0000C00085FFFCCF84E18093C6008091C00058
:107A100085FFFCCF80E18093C6000895E0910401CA
:107A2000F09105010995089540E951E08823A1F0FE
:107A30002D9A28EE33E0FA013197F1F721503040CA
:107A4000D1F72D9828EE33E0FA013197F1F7215064
:107A50003040D1F7815061F708953F924F925F9285
:107A60006F927F928F929F92AF92BF92CF92DF924E
:107A7000EF92FF920F931F93CF93DF93000080E16B
:107A80008093C4001092C50088E18093C10086E015
:107A90008093C2005098589A259A81E00E94143D24
:107AA00024E1F22E9EE1E92E85E9D82E0FE0C02ECA
:107AB00010E1B12EAA24A394B1E49B2EA6E58A2E50
:107AC000F2E57F2EE0E26E2E79E4572E63E5462E36
:107AD00050E5352E0E94763C8033B1F18133B9F107
:107AE000803409F46FC0813409F476C0823409F41B
:107AF00085C0853409F488C0803531F1823521F1A3
:107B0000813511F1853509F485C0863509F48DC0BC
:107B1000843609F496C0843709F403C1853709F423
:107B200072C1863709F466C0809103018F5F80932C
:107B30000301853079F6E0910401F0910501099582
:107B40000E94763C803351F60E94F33CC3CF0E94E2
:107B5000763C803249F78091C00085FFFCCFF092DF
:107B6000C6008091C00085FFFCCF9092C600809136
:107B7000C00085FFFCCF8092C6008091C00085FFC9
:107B8000FCCF7092C6008091C00085FFFCCF609250
:107B9000C6008091C00085FFFCCF5092C600809146
:107BA000C00085FFFCCF4092C6008091C00085FFD9
:107BB000FCCF3092C6008091C00085FFFCCFB09210
:107BC000C60088CF0E94763C863808F4BDCF0E945C
:107BD000763C0E94F33C7ECF0E94763C803809F4CC
:107BE0009CC0813809F40BC1823809F43CC1883942
:107BF00009F48FC080E00E94C73C6CCF84E10E94F2
:107C0000BD3C0E94F33C66CF85E00E94BD3C0E94D3
:107C1000F33C60CF0E94763C809306010E94763C44
:107C2000809307010E94F33C55CF0E94763C80333D
:107C300009F41DC183E00E94BD3C80E00E94C73C66
:107C400049CF0E94763C809309020E94763C809343
:107C5000080280910C028E7F80930C020E94763C79
:107C6000853409F415C18091080290910902892B8D
:107C700089F000E010E00E94763CF801E85FFE4FDA
:107C800080830F5F1F4F80910802909109020817AF
:107C9000190788F30E94763C803209F045CF809125
:107CA0000C0280FF01C16091060170910701660F0F
:107CB000771F7093070160930601A0910802B091AD
:107CC00009021097C9F0E8E0F1E09B01AD014E0F09
:107CD0005F1FF999FECF32BD21BD819180BDFA9A17
:107CE000F99A2F5F3F4FE417F50799F76A0F7B1F4B
:107CF00070930701609306018091C00085FFFCCF5F
:107D0000F092C6008091C00085FFFCCFB092C60003
:107D1000E1CE83E00E94C73CDDCE82E00E94C73CFA
:107D2000D9CE0E94763C809309020E94763C8093D3
:107D300008028091060190910701880F991F909386
:107D40000701809306010E94763C853409F4A6C0A1
:107D500080910C028E7F80930C020E94763C8032D0
:107D600009F0B8CE8091C00085FFFCCFF092C6002C
:107D7000609108027091090261157105B9F140E046
:107D800050E080910C02A82FA170B82FB27011C0E2
:107D9000BB2309F45CC0E0910601F0910701319624
:107DA000F0930701E09306014F5F5F4F46175707B7
:107DB000E8F4AA2369F3F999FECF209106013091E6
:107DC000070132BD21BDF89A90B58091C00085FFB2
:107DD000FCCF9093C6002F5F3F4F30930701209355
:107DE00006014F5F5F4F4617570718F38091C00099
:107DF00085FDE5CE8091C00085FFF8CFE0CE81E023
:107E00000E94C73C67CE0E94763C803209F08CCE3F
:107E10008091C00085FFFCCFF092C6008091C00029
:107E200085FFFCCFE092C6008091C00085FFFCCFAB
:107E3000D092C6008091C00085FFFCCFC092C600E2
:107E40008091C00085FFFCCFB092C60043CEE09188
:107E50000601F091070194918091C00085FFFCCF4D
:107E60009093C6009CCF80E10E94C73C33CE0E9415
:107E7000763C0E94763C182F0E94763C112309F430
:107E800083C0113009F484C08FE00E94C73C22CE29
:107E900080910C02816080930C02E5CE80910C02EF
:107EA000816080930C0259CF809107018823880F4D
:107EB000880B8A2180930B02809106019091070123
:107EC000880F991F90930701809306018091080203
:107ED00080FF09C080910802909109020196909359
:107EE000090280930802F894F999FECF1127E091D6
:107EF0000601F0910701C8E0D1E08091080290915D
:107F00000902103091F40091570001700130D9F34B
:107F100003E000935700E89500915700017001308D
:107F2000D9F301E100935700E89509901990009169
:107F3000570001700130D9F301E000935700E89534
:107F40001395103498F011270091570001700130FB
:107F5000D9F305E000935700E895009157000170B0
:107F60000130D9F301E100935700E895329602976A
:107F700009F0C7CF103011F00296E5CF112480919F
:107F8000C00085FFB9CEBCCE8EE10E94C73CA2CD19
:0C7F900085E90E94C73C9ECDF894FFCF0D
:027F9C00800063
:040000030000780081
:00000001FF