:100000000C9462000C9470070C9449070C94BE0782
:100010000C94BE070C94BE070C948A000C948A00C2
:100020000C948A000C948A000C948A000C948A0028
:100030000C948A000C9497070C948A000C948A0004
:100040000C94FF060C948A000C9473050C944D05D7
:100050000C948A000C948A000C948A000C948A00F8
:100060000C948A000C948A000000000024002700F1
:100070002A0000000008000201000003040700003D
:1000800000000000000000000000230026002900FE
:1000900000000000250028002B00040404040404D0
:1000A0000404020202020202030303030303010227
:1000B00004081020408001020408102001020408F6
:1000C0001020CE0C11241FBECFEFD8E0DEBFCDBF75
:1000D00012E0A0E0B1E0E0E2F4E202C005900D928F
:1000E000A43DB107D9F724E0A4EDB2E001C01D9210
:1000F000A934B207E1F710E0C2E6D0E004C02197CE
:10010000FE010E940C10C136D107C9F70E94660A91
:100110000C940E120C940000FC01538D448D252F7D
:1001200030E0842F90E0821B930B541710F0CF9691
:10013000089501970895FC01918D828D981761F0C3
:10014000828DDF01A80FB11D5D968C91928D9F5F0E
:100150009F73928F90E008958FEF9FEF0895FC01B9
:10016000918D828D981731F0828DE80FF11D858D6C
:1001700090E008958FEF9FEF0895FC01918D228DFF
:10018000892F90E0805C9F4F821B91098F73992784
:10019000089584E993E00E94BD0021E0892B09F4D1
:1001A00020E0822F0895FC01848DDF01A80FB11D8E
:1001B000A35ABF4F2C91848D90E001968F7399279D
:1001C000848FA689B7892C93A089B1898C9183707B
:1001D00080648C93938D848D981306C00288F38974
:1001E000E02D80818F7D80830895EF92FF920F93A1
:1001F0001F93CF93DF93EC0181E0888F9B8D8C8DD3
:10020000981305C0E889F989808185FD26C0F62EFE
:100210000B8D10E00F5F1F4F0F731127E02E8C8D99
:10022000E8120CC00FB607FCFACFE889F989808183
:1002300085FFF5CFCE010E94D300F1CF8B8DFE015B
:10024000E80FF11DE35AFF4FF0829FB7F8940B8F30
:10025000EA89FB89808180620AC09FB7F894EE89A1
:10026000FF896083E889F989808183708064808355
:100270009FBF81E090E0DF91CF911F910F91FF90A0
:10028000EF900895CF93DF93EC01888D8823C9F018
:10029000EA89FB89808185FD05C0A889B9898C918F
:1002A00086FD0FC00FB607FCF5CF808185FFF2CF2A
:1002B000A889B9898C9185FFEDCFCE010E94D3002A
:1002C000E7CFDF91CF910895833081F028F481301A
:1002D00099F08230A1F008958730A9F08830B9F004
:1002E0008430D1F4809180008F7D03C080918000A4
:1002F0008F7780938000089584B58F7702C084B58E
:100300008F7D84BD08958091B0008F7703C0809168
:10031000B0008F7D8093B00008953FB7F89480912E
:100320002B0390912C03A0912D03B0912E0326B5A1
:10033000A89B05C02F3F19F00196A11DB11D3FBF1D
:10034000BA2FA92F982F8827820F911DA11DB11DAB
:10035000BC01CD0142E0660F771F881F991F4A95A7
:10036000D1F7089508952091310330913203281771
:10037000390771F490912F0380913003981741F061
:10038000E0912F03F0E0EA51FD4F808190E0089565
:100390008FEF9FEF089508951F93CF93DF93DC01B4
:1003A0005C968D919C915D97009739F421E030E047
:1003B00013963C932E9312973BC05196ED91FC916E
:1003C000529750962C915097322F30951FB75E96CA
:1003D0004C915E97742F727041FD6095F894408146
:1003E000772311F0422B01C043234083EC01219776
:1003F000F1F748E0508160FF02C0522B01C0532347
:100400005083EC012197F1F76695415099F780816F
:10041000772319F08323808302C0282B20831FBFFA
:100420005C968D919C915D970197F1F781E090E04A
:10043000DF91CF911F9108952091310330913203C4
:100440002817390771F48091300320912F0390E031
:10045000805C9F4F821B910960E470E00E94E40F72
:10046000089580E090E008952091310330913203A7
:1004700028173907B9F490912F038091300398170A
:1004800089F0E0912F03F0E0EA51FD4F8081209147
:100490002F0330E02F5F3F4F2F73332720932F031D
:1004A00090E008958FEF9FEF0895089580E090E029
:1004B0000895209138033091390380913C03909145
:1004C0003D03281739072CF080913E0390913F039C
:1004D00005C08091380390913903019690933903B8
:1004E000809338038091D7029091D8028436910589
:1004F0000CF11092D8021092D70220919003309103
:1005000091038091090190910A012817390744F05D
:1005100081E08093930310929103109290030895C9
:100520008091900390919103019690939103809311
:10053000900308958091D7029091D80201969093EC
:10054000D8028093D70208950E94F9110C94B90E35
:100550000C94B10E8F929F92AF92BF92CF92DF9286
:10056000EF92FF92CF93DF9384E993E00E94BD0066
:10057000892B09F481C284E993E00E949B008636AE
:1005800009F01DC28091E4029091E5029C012F5F69
:100590003F4F3093E5022093E402FC01E652FD4F09
:1005A00010821092E5021092E4028091DA028936FC
:1005B00009F0F7C18091DB028836D9F52091DC0281
:1005C000022E000C330B205331094091DD02809143
:1005D000DE022A30310508F04FC0042E000C550B06
:1005E000405351099AE0949FE001959FD00D11244A
:1005F00094E6929FA001939F500D1124C40FD51F24
:10060000082E000C990BC097C80FD91F80910301C9
:10061000909104016C2F0E94A60281E491E00E9457
:100620005609CE010E946209D0933D03C0933C035A
:1006300023C28091DB028C3669F18091DB0289361E
:1006400009F462C08091DB02843709F492C0809182
:10065000DB02863709F0F6C08091DC02082E000C20
:10066000990BC097C091DD020C2E000CDD0BE097BA
:100670008430910508F4BCC084E591E0DF91CF910E
:10068000FF90EF90DF90CF90BF90AF909F908F90B2
:100690000C9456092091DC02022E000C330B2053DF
:1006A00031094091DD028091DE022A30310520F7C8
:1006B000042E000C550B405351099AE0949FE00121
:1006C000959FD00D112494E6929FA001939F500D09
:1006D0001124C40FD51F082E000C990BC097C80F0A
:1006E000D91F80910501909106016C2F0E94A602EE
:1006F00087E691E00E945609CE010E946209D093DC
:100700003F03C0933E03B8C12091DC02022E000CCF
:10071000330B205331094091DD028091DE022430F9
:10072000310508F0A9CF042E000C550B4053510998
:100730009AE0949FE001959FD00D112494E6929F3A
:10074000A001939F500D1124C40FD51F082E000C3B
:10075000990BC097C80FD91F809101019091020198
:100760006C2F0E94A6028AE791E00E945609CE01F2
:1007700081C02091DC02022E000C330B2053310982
:100780004091DD028091DE022430310508F074CF03
:10079000042E000C550B405351099AE0949FE00140
:1007A000959FD00D112494E6929FA001939F500D28
:1007B0001124C40FD51F082E000C990BC097C80F29
:1007C000D91F80910B0190910C016C2F0E94A60201
:1007D0008CE891E00E945609CE010E9458098FE9E9
:1007E00091E00E94580AD0930A01C093090144C1C4
:1007F0004AE0489F9001499F300D1124C20FD31F3A
:10080000CF31D10514F0CEE1D0E080910701909175
:1008100008016C2F0E94A60288EA91E00E94560906
:10082000CE010E9462094C2F60E086E00E947A09A6
:1008300040E060E083E40E947A09D0931201C09303
:1008400011011AC18091DB02833741F48CEB91E0F6
:100850000E94580A40E060E086E197C08091DB0288
:100860008136A1F481ED91E00E9456098091400308
:1008700090914103DF91CF91FF90EF90DF90CF9067
:10088000BF90AF909F908F900C9462098091DB0293
:10089000803709F049C0C0903803D090390380E018
:1008A00090E021E040913A0350913B038417950773
:1008B0006CF4FC01EE0FFF1FE05CFC4F40815181A6
:1008C0004C155D0509F420E00196ECCF211187C09D
:1008D00080903C0390903D038FEF881A980A092C72
:1008E000000CAA08BB08C0903E03D0903F030D2C1B
:1008F000000CEE08FF08C814D904EA04FB047CF6D7
:100900008C189D08AE08BF0839F00E94CA0DA501D9
:1009100094010E94C70E03C060E070E0CB01C60ED8
:10092000D71EE81EF91EBBCF8091DB02823709F08B
:10093000A3C02091DC02022E000C330B205331099E
:10094000E091DD028091DE022A30310508F094CE7C
:1009500060911101709112010E2E000CFF0BF097A7
:100960009AE09E9FD0019F9FB00D112494E6929F24
:10097000A001939F500D11244A0F5B1F082E000CFD
:10098000990BC097480F591F82E2DF91CF91FF90DA
:10099000EF90DF90CF90BF90AF909F908F900C948E
:1009A0007A0981EF91E0DF91CF91FF90EF90DF9096
:1009B000CF90BF90AF909F908F900C94580A209149
:1009C000E4023091E502A9014F5F5F4F5093E502C9
:1009D0004093E402F901E652FD4F80834DC08091BF
:1009E0003A0390913B0397FD13C09C0121503109BC
:1009F000F901EE0FFF1FE05CFC4F40815181880F31
:100A0000991FFC01E05CFC4F51834083C901EBCF8F
:100A1000D0924103C0924003C0E0D0E080913A03FD
:100A200090913B03C817D90784F4FE01EE0FFF1F16
:100A3000E05CFC4F808191810E9458096CE284E95E
:100A400093E00E94F5002196E9CF85EE91E00E94A7
:100A5000560980913803909139030E9462098EE60D
:100A600091E00E94560980914003909141030E94B9
:100A7000620981E080939203DF91CF91FF90EF9024
:100A8000DF90CF90BF90AF909F908F9008950E947D
:100A9000C90081110C94AA0208951F920F920FB6FB
:100AA0000F9211242F933F934F935F936F937F93F4
:100AB0008F939F93AF93BF93EF93FF9384E993E05A
:100AC0000E94D300FF91EF91BF91AF919F918F91C1
:100AD0007F916F915F914F913F912F910F900FBE3A
:100AE0000F901F9018951F920F920FB60F9211241E
:100AF0002F938F939F93EF93FF93E091A403F09133
:100B0000A5038081E091AA03F091AB0382FD12C09E
:100B100090818091AD038F5F8F732091AE03821718
:100B200051F0E091AD03F0E0EC56FC4F958F8093CF
:100B3000AD0301C08081FF91EF919F918F912F9123
:100B40000F900FBE0F901F9018951F93CF93DF93B8
:100B5000282F30E0F901EE58FF4F8491F901E2555A
:100B6000FF4FD491F901E656FF4FC491CC23C1F059
:100B7000162F81110E946401EC2FF0E0EE0FFF1F91
:100B8000E057FF4FA591B4919FB7F894111104C09D
:100B90008C91D095D82302C0EC91DE2BDC939FBFC3
:100BA000DF91CF911F910895CF93DF9390E0FC01E7
:100BB000E255FF4F2491FC01E656FF4F84918823B4
:100BC00061F190E0880F991FFC01E859FF4FC59132
:100BD000D491FC01E057FF4FA591B491611109C078
:100BE0009FB7F8948881209582238883EC912E23E7
:100BF0000BC0623061F49FB7F8948881322F309532
:100C000083238883EC912E2B2C939FBF06C08FB734
:100C1000F894E8812E2B28838FBFDF91CF91089520
:100C20008F929F92AF92BF92CF92DF92EF92FF92FC
:100C30006B017C010E948D014B015C01C114D10448
:100C4000E104F104F1F00E948D01DC01CB0188196F
:100C50009909AA09BB09883E9340A105B10570F323
:100C600021E0C21AD108E108F10888EE880E83E07D
:100C7000981EA11CB11CC114D104E104F10419F7A0
:100C8000DDCFFF90EF90DF90CF90BF90AF909F901F
:100C90008F9008958F929F92AF92BF92CF92DF92E2
:100CA000EF92FF92CF9364E170E080E090E00E94C9
:100CB0001006E4E7F0E08491E0EBF0E0F490ECE97A
:100CC000F0E0C491CC2379F081110E946401EC2FF3
:100CD000F0E0EE0FFF1FEA57FF4FA591B491EC91A2
:100CE000EF2181E009F480E081708093D902809146
:100CF000D90281117AC0C0903803D090390380E0C6
:100D000090E021E040913A0350913B03841795070E
:100D10006CF4FC01EE0FFF1FE05CFC4F4081518141
:100D20004C155D0509F420E00196ECCF21112CC093
:100D300080903C0390903D038FEF881A980A092C0D
:100D4000000CAA08BB08C0903E03D0903F030D2CB6
:100D5000000CEE08FF08C814D904EA04FB047CF672
:100D60008C189D08AE08BF0839F00E94CA0DA50175
:100D700094010E94C70E03C060E070E0CB01C60E74
:100D8000D71EE81EF91EBBCF80913A0390913B031A
:100D900097FD13C09C0121503109F901EE0FFF1F8F
:100DA000E05CFC4F40815181880F991FFC01E05CA1
:100DB000FC4F51834083C901EBCFD0924103C092D5
:100DC000400388E092E00E94560980914003909190
:100DD00041030E94620981E080939203E89882EBCC
:100DE00091E090930E0180930D01CF91FF90EF90D1
:100DF000DF90CF90BF90AF909F908F9008951F92FB
:100E00000F920FB60F9211242F933F938F939F93BE
:100E1000AF93BF938091270390912803A09129035A
:100E2000B0912A033091260323E0230F2D3720F4BD
:100E30000196A11DB11D05C026E8230F0296A11D34
:100E4000B11D209326038093270390932803A0933A
:100E50002903B0932A0380912B0390912C03A09136
:100E60002D03B0912E030196A11DB11D80932B037C
:100E700090932C03A0932D03B0932E03BF91AF91B9
:100E80009F918F913F912F910F900FBE0F901F90C8
:100E900018951F920F920FB60F9211242F933F9324
:100EA0004F935F936F937F938F939F93AF93BF9372
:100EB000EF93FF93E0910F01F09110010995FF91DD
:100EC000EF91BF91AF919F918F917F916F915F91C2
:100ED0004F913F912F910F900FBE0F901F9018953B
:100EE0001F920F920FB60F9211242F933F934F939F
:100EF0005F936F937F938F939F93AF93BF93EF9382
:100F0000FF93E0910D01F0910E010995FF91EF9192
:100F1000BF91AF919F918F917F916F915F914F9111
:100F20003F912F910F900FBE0F901F9018951F9219
:100F30000F920FB60F9211242F933F934F935F930D
:100F40006F937F938F939F93AF93BF93EF93FF9391
:100F5000E0913303F09134030995FF91EF91BF9134
:100F6000AF919F918F917F916F915F914F913F9141
:100F70002F910F900FBE0F901F9018951F920F92F8
:100F80000FB60F9211242F933F934F935F936F935C
:100F90007F938F939F93AF93BF93EF93FF93E091D2
:100FA0003103F0913203309709F451C0968DA68534
:100FB000B785858591FF04C09C91892329F447C09A
:100FC0009C91892309F043C0A389B4899C918589A8
:100FD000809589238C93868997890197F1F7608D95
:100FE000718DA685B785558538E020E0CB01019746
:100FF000F1F7822F90E095958795282F4C91452306
:1010000009F02068315091F7868D81FD20958091FF
:10101000300390E001968F73992730912F03381792
:1010200049F0A0913003B0E0AA51BD4F2C938093BA
:10103000300303C0868D8160868F828D938D0197EA
:10104000F1F7A389B4899C918589892B8C93FF91B1
:10105000EF91BF91AF919F918F917F916F915F9130
:101060004F913F912F910F900FBE0F901F901895A9
:10107000CF92DF92EF92FF920F931F93CF93DF9364
:101080006C017A018B01C0E0D0E0CE15DF0581F064
:10109000D8016D918D01D601ED91FC910190F08107
:1010A000E02DC6010995892B11F02196EECF7E0126
:1010B000C701DF91CF911F910F91FF90EF90DF90CB
:1010C000CF900895009769F0FC0101900020E9F7A6
:1010D0003197AF01481B590BBC0184E993E00C9494
:1010E000380880E090E008958F929F92AF92BF926F
:1010F0000F931F93CF93DF93CDB7DEB7A1970FB6B2
:10110000F894DEBF0FBECDBF19A2423008F44AE00A
:101110008E010F5D1F4F842E912CA12CB12CA501A7
:1011200094010E94300FE62FB901CA010150110944
:10113000EA3014F4E05D01C0E95CD801EC93232BA4
:10114000242B252B61F7C8010E946208A1960FB6D7
:10115000F894DEBF0FBECDBFDF91CF911F910F91ED
:10116000BF90AF909F908F900895CF92DF92EF92B3
:10117000FF92CF93DF936B017C016DE284E993E0F2
:101180000E94F500EC0166277727CB016C197D09D9
:101190008E099F094AE00E9474088C0F9D1FDF9101
:1011A000CF91FF90EF90DF90CF9008950F931F9312
:1011B000CF93DF93EC0188819981009729F02A81F0
:1011C0003B812617370788F48B016F5F7F4F0E94A2
:1011D0003311009761F0998388831B830A832C81E4
:1011E0003D81232B11F4FC01108281E001C080E0DD
:1011F000DF91CF911F910F910895EF92FF920F937E
:101200001F93CF93DF936115710511F480E01CC02B
:1012100041155105C1F07B01EC018C819D818A0152
:10122000080F191FB801CE010E94D608882371F358
:10123000288139818C819D81B701820F931F0E9483
:1012400007121D830C8381E0DF91CF911F910F91D5
:10125000FF90EF900895EF92FF920F931F93CF931B
:10126000DF93EC017B018A01BA010E94D608288134
:10127000398181110DC02115310519F0C9010E9474
:10128000AA10198218821D821C821B821A8206C033
:101290001D830C83B701C9010E940712CE01DF91A3
:1012A000CF911F910F91FF90EF9008950C946208D9
:1012B000BC01990F880B990B97FD0C94B5084AE077
:1012C0000C947408CF93DF93BC01990F880B990B92
:1012D00097FF03C00E94B50803C04AE00E9474084B
:1012E000EC0182EC92E00E9462088C0F9D1FDF915E
:1012F000CF910895BF92CF92DF92EF92FF920F931A
:101300001F93CF93DF93CDB7DEB7A3970FB6F894B3
:10131000DEBF0FBECDBFD82EE62EF42E8E01065FA7
:101320001F4F88E0D8011D928A95E9F71F8E1E8E07
:1013300019A218A21BA21AA240E050E064EC72E0CD
:10134000CE014E960E942B0964E170E080E090E0AF
:101350000E9410068EE78A878FEF8B8786E08C8746
:10136000DD8681E08E87EF86F88A8FEE898B6E01AD
:10137000B2E1CB0ED11CFE0131967F018091340485
:1013800090913504D801BD908D01DC01ED91FC9167
:101390000190F081E02D6B2D0995198E188E1B8E12
:1013A0001A8E1D8E1C8E40E050E064EC72E0CE017F
:1013B00048960E942B0942E050E065EC72E0CE01B5
:1013C00048960E942B09BFE0BB1540F041E050E079
:1013D00068EC72E0CE0148960E94FD081B8A1A8ACA
:1013E0001D8A1C8A1F8A1E8A40E1B7018B2D90E05E
:1013F0000E94210EF70101900020E9F73197AF011B
:101400004E195F09B701C6010E942B094E895F89F9
:101410006A897B89CE0148960E94FD088A899B894A
:101420000E94AA1041E050E06FEC71E0CE014896B6
:101430000E94FD084C8D5D8D688D798DCE014E9694
:101440000E94FD08888D998D0E94AA10C016D106B1
:1014500009F094CF80913304882381F08AEC92E0E4
:101460000E9456094AA15BA16E8D7F8D84E993E0AD
:101470000E94380882EC92E00E94620868EE73E0F5
:1014800080E090E00E9410068E8D9F8D0E94AA1031
:10149000A3960FB6F894DEBF0FBECDBFDF91CF91FC
:1014A0001F910F91FF90EF90DF90CF90BF90089524
:1014B000CF93DF930E946208EC0182EC92E00E94DD
:1014C00062088C0F9D1FDF91CF910895CF93DF931A
:1014D00000D0CDB7DEB7789484B5826084BD84B582
:1014E000816084BD85B5826085BD85B5816085BD1F
:1014F00080916E00816080936E00109281008091D7
:10150000810082608093810080918100816080935E
:101510008100809180008160809380008091B10083
:1015200084608093B1008091B00081608093B000AE
:1015300080917A00846080937A0080917A00826042
:1015400080937A0080917A00816080937A00809104
:101550007A00806880937A001092C10083E08093C3
:10156000000180EC80937C0080917A0080648093FD
:101570007A0080917A0086FDFCCF6091780080919E
:10158000790070E0782B072E000C880B990B611501
:1015900071058105910511F00E94180E62E082E04C
:1015A0000E94D40561E08DE00E94D40580910B017A
:1015B00090910C010E94A80290E090930A01809300
:1015C0000901E091A403F091A50382E08083E091FA
:1015D000A003F091A1031082E091A203F091A30374
:1015E00087E680831092AC03E091A803F091A903F1
:1015F00086E08083E091A603F091A703808180615B
:101600008083E091A603F091A703808188608083A6
:10161000E091A603F091A703808180688083E09128
:10162000A603F091A70380818F7D8083E09134042D
:10163000F0913504138E128E118E108E178A168A31
:101640008DE991E0958F848F9485963108F04EC096
:101650002DEB30E0378B268B2BE931E0318F208F5B
:101660002CE231E0338F228F30916800983058F0AF
:1016700021E09E3008F420E091E0892F01C0880F1E
:101680002A95EAF701C084E0832B80936800948553
:10169000983038F09E3040F0963148F020E030E04D
:1016A00008C02DE630E005C02BE630E002C02CE695
:1016B00030E0348B238B983030F481E001C0880F08
:1016C0009A95EAF70EC0292F30E09E3018F4285082
:1016D000310902C02E50310981E001C0880F2A95DE
:1016E000EAF7858B848D958D0197F1F7828D938D27
:1016F000892B49F14091310350913203E417F507EA
:1017000011F14115510571F0DA0153962D913C917B
:101710005497D9019C91DA0155968C918095892333
:10172000D9018C93868D8E7F868F10923003109214
:101730002F03F0933203E0933103A389B4899C9182
:101740008589892B8C9340E060E088E40E947A09C7
:1017500064EF71E080E090E00E94100642E060E0FB
:1017600089E00E947A0984E192E00E94580A84E3A9
:1017700092E00E94580A86E592E00E94580A8BE7A0
:1017800092E00E94580A80910701909108010E94FE
:10179000A80290E0909312018093110140911101F1
:1017A0005091120160E086E00E947A0940E060E01A
:1017B00083E40E947A0980910501909106010E94BC
:1017C000A80290E090933F0380933E038091030131
:1017D000909104010E94A80290E090933D038093B1
:1017E0003C038BE892E00E94560980910901909198
:1017F0000A010E9462098DE992E00E9456098091D7
:101800001101909112010E94620987EA92E00E9400
:10181000560980913E0390913F030E94620980EB3C
:1018200092E00E94560980913C0390913D030E94F2
:10183000620980913C0390913D0320913E033091D9
:101840003F03821B930B019665E070E00E94E40F5A
:10185000072E000C880B990B0E944D0E0E94970FCB
:101860000E94610F70933B0360933A0389EB92E00F
:101870000E94560980913A0390913B030E946209AD
:1018800080913E0390913F039093390380933803F6
:101890008AE496E090930E0180930D018091690097
:1018A0008C7F826080936900E89A80E18093810058
:1018B0001092800082E08093370380E197E290935A
:1018C000360380933503909387008093860082E1EE
:1018D0008093810089E592E09093340380933303F1
:1018E00081E080936F0068EE73E080E090E00E94FA
:1018F000100682E090E09A838983809101019091A3
:1019000002010E94A802182F8AE791E00E9456095E
:10191000812F90E00E946209609111017091120183
:10192000412F82E20E947A0961E08DE00E94A505C4
:101930000AE416E080919303882339F01092930310
:1019400040E060E086E10E947A098091920388235A
:1019500011F11092920310929103109290036091F2
:10196000110170911201409140035091410382E2B4
:101970000E947A0968EB7BE080E090E00E9410060C
:1019800010930E0100930D01809169008C7F82609D
:1019900080936900E89A0E944705CCCFCF92DF92EE
:1019A000EF92FF92CF93DF931092970310929603DA
:1019B00098EEC92E93E0D92EE12CF12CC092980319
:1019C000D0929903E0929A03F0929B0381E291E016
:1019D000909395038093940385EC90E09093A103FA
:1019E0008093A00384EC90E09093A3038093A203E0
:1019F00080EC90E09093A5038093A40381EC90E0A9
:101A00009093A7038093A60382EC90E09093A903A0
:101A10008093A80386EC90E09093AB038093AA0395
:101A20001092AD031092AE031092AF031092B00368
:101A30008FE0E6E3F4E0DF011D928A95E9F78FE19C
:101A400090E00E941210EC011B821A82CC82DD828F
:101A5000EE82FF8283E391E0998388831F8A1E8A46
:101A6000198E188E1B8E1A8E1D8E1C8E6E8D6E7F9B
:101A70006D7F6E8F6695617081E068278BE00E94B4
:101A8000A50561E08BE00E94D405E9EBF0E0E4916C
:101A9000E88BE5EAF0E0E491F0E0EE0FFF1FE0579D
:101AA000FF4F859194919A8B898B60E08AE00E9428
:101AB000D4058E8D81FD04C061E08AE00E94A505F9
:101AC0008AE08C87E8EBF0E0E491ED87E4EAF0E06F
:101AD000E491F0E0EE0FFF1FEA57FF4F85919491DC
:101AE0009F878E87D0933504C093340410923304BB
:101AF000DF91CF91FF90EF90DF90CF9008958F927C
:101B00009F92AF92BF92CF92DF92EF92FF92CF93CC
:101B1000DF93EC01688179818A819B816115710570
:101B20008105910521F464E279ED8BE597E02DE1E3
:101B300033EF41E050E00E94C70E49015A019B017A
:101B4000AC01A7EAB1E40E94E60E6B017C01ACEEA9
:101B5000B4EFA50194010E94F40EDC01CB018C0DC1
:101B60009D1DAE1DBF1DB7FF03C00197A109B04861
:101B700088839983AA83BB83BC01CD019F77DF91C2
:101B8000CF91FF90EF90DF90CF90BF90AF909F905C
:101B90008F9008958F929F92AF92BF92CF92DF92D3
:101BA000EF92FF92609113017091140180911501E1
:101BB00090911601611571058105910521F464E28A
:101BC00079ED8BE597E02DE133EF41E050E00E94A5
:101BD000C70E49015A019B01AC01A7EAB1E40E947A
:101BE000E60E6B017C01ACEEB4EFA50194010E94FE
:101BF000F40EDC01CB018C0D9D1DAE1DBF1DB7FF8A
:101C000003C00197A109B048809313019093140178
:101C1000A0931501B0931601BC01CD019F77FF90F1
:101C2000EF90DF90CF90BF90AF909F908F900895EE
:101C30006093130170931401809315019093160122
:101C40000895BB27FB015527AA27880F991FAA1FB4
:101C5000A41710F0A41B83955051B9F7A05DAA33C7
:101C600008F0A95DA193009779F7B111B193119292
:101C7000CB010C943B0EDC01FC01672F71917723A3
:101C8000E1F7329704C07C916D9370836291AE1737
:101C9000BF07C8F30895E89409C097FB3EF49095F8
:101CA0008095709561957F4F8F4F9F4F9923A9F035
:101CB000F92F96E9BB279395F695879577956795C4
:101CC000B795F111F8CFFAF4BB0F11F460FF1BC008
:101CD0006F5F7F4F8F4F9F4F16C0882311F096E99B
:101CE00011C0772321F09EE8872F762F05C0662349
:101CF00071F096E8862F70E060E02AF09A95660F02
:101D0000771F881FDAF7880F9695879597F90895BA
:101D100057FD9058440F551F59F05F3F71F047959C
:101D2000880F97FB991F61F09F3F79F08795089581
:101D3000121613061406551FF2CF4695F1DF08C0A0
:101D4000161617061806991FF1CF869571056105BD
:101D500008940895E894BB2766277727CB0197F965
:101D60000895F999FECF92BD81BDF89A992780B563
:101D70000895262FF999FECF1FBA92BD81BD20BDCF
:101D80000FB6F894FA9AF99A0FBE01960895052EA7
:101D900097FB1EF400940E94DE0E57FD07D00E94B0
:101DA000300F07FC03D04EF40C94DE0E5095409596
:101DB000309521953F4F4F4F5F4F089590958095F7
:101DC000709561957F4F8F4F9F4F08950E94520FDE
:101DD000A59F900DB49F900DA49F800D911D11247F
:101DE0000895B7FF0C94E60E0E94E60E821B930B3B
:101DF00008952F923F924F925F926F927F928F92AF
:101E00009F92AF92BF92CF92DF92EF92FF920F9389
:101E10001F93CF93DF93CDB7DEB7CA1BDB0B0FB693
:101E2000F894DEBF0FBECDBF09942A883988488850
:101E30005F846E847D848C849B84AA84B984C884E6
:101E4000DF80EE80FD800C811B81AA81B981CE0FDD
:101E5000D11D0FB6F894DEBF0FBECDBFED010895C2
:101E6000A1E21A2EAA1BBB1BFD010DC0AA1FBB1F9E
:101E7000EE1FFF1FA217B307E407F50720F0A21B10
:101E8000B30BE40BF50B661F771F881F991F1A947D
:101E900069F760957095809590959B01AC01BD01A7
:101EA000CF010895A29FB001B39FC001A39F700D01
:101EB000811D1124911DB29F700D811D1124911D52
:101EC00008950E94680F6894B1110C94AB0E0895A8
:101ED0000E94900E88F09F5798F0B92F9927B7511C
:101EE000B0F0E1F0660F771F881F991F1AF0BA95BE
:101EF000C9F714C0B13091F00E94AA0EB1E0089564
:101F00000C94AA0E672F782F8827B85F39F0B93F55
:101F1000CCF3869577956795B395D9F73EF4909570
:101F20008095709561957F4F8F4F9F4F08950E94C8
:101F3000900EE8F09E37E8F09639B8F49E3848F4F1
:101F4000672F782F8827985FF9CF869577956795C3
:101F500093959539D0F3B62FB1706B0F711D811D1C
:101F600020F487957795679593950C94BB0F0C9407
:101F7000D60F0C94AB0E882371F4772321F0985080
:101F8000872B762F07C0662311F499270DC0905137
:101F9000862B70E060E02AF09A95660F771F881F05
:101FA000DAF7880F9695879597F908959F3F31F056
:101FB000915020F4879577956795B795880F911D77
:101FC0009695879597F9089597FB072E16F4009438
:101FD00007D077FD09D00E94F80F07FC05D03EF42A
:101FE000909581959F4F0895709561957F4F0895C5
:101FF000AA1BBB1B51E107C0AA1FBB1FA617B7072F
:1020000010F0A61BB70B881F991F5A95A9F780954A
:102010009095BC01CD010895EE0FFF1F0590F4913E
:10202000E02D09940F931F93CF93DF938230910596
:1020300010F482E090E0E0914704F091480420E041
:1020400030E0A0E0B0E0309719F140815181028189
:10205000138148175907C8F08417950769F410973A
:1020600031F012960C93129713961C9327C000938D
:1020700047041093480422C02115310519F0421776
:10208000530718F49A01BD01EF01DF01F801DBCF1E
:1020900021153105F9F0281B390B2430310580F466
:1020A0008A819B816115710521F0FB0193838283F5
:1020B00004C09093480480934704FE01329644C0C4
:1020C000FE01E20FF31F819391932250310939836E
:1020D00028833AC02091450430914604232B41F4D3
:1020E0002091190130911A01309346042093450440
:1020F00020911701309118012115310541F42DB7B8
:102100003EB740911B0150911C01241B350BE091FF
:102110004504F0914604E217F307A0F42E1B3F0B91
:102120002817390778F0AC014E5F5F4F2417350749
:1021300048F04E0F5F1F509346044093450481932F
:10214000919302C0E0E0F0E0CF01DF91CF911F91C9
:102150000F910895CF93DF93009709F481C0FC019C
:10216000329713821282A0914704B09148041097CD
:1021700081F420813181820F931F20914504309199
:1021800046042817390751F5F0934604E0934504B7
:1021900067C0ED0120E030E0CE17DF0740F44A8150
:1021A0005B819E0141155105F1F0EA01F5CFD38322
:1021B000C28340815181840F951FC817D90759F4F4
:1021C00088819981840F951F0296918380838A81EB
:1021D0009B81938382832115310529F4F093480470
:1021E000E09347043DC0E901FB83EA83499159919B
:1021F000C40FD51FEC17FD0761F480819181840F16
:10220000951F0296E90199838883828193819B833C
:102210008A83E0E0F0E012968D919C9113970097ED
:1022200019F0FD01DC01F7CF8D919C9111979D0173
:102230002E5F3F4F820F931F20914504309146043B
:102240002817390769F4309729F41092480410923E
:10225000470402C013821282B0934604A09345043F
:10226000DF91CF910895A0E0B0E0E9E3F1E10C94B3
:10227000FD0EEC01009721F4CB010E941210B4C0B6
:10228000FC01E60FF71F9C0122503109E217F3070A
:1022900008F4A8C0D9010D911C91119706171707D2
:1022A000B0F00530110508F49BC0C80104978617EB
:1022B000970708F495C002501109061B170B0193EC
:1022C00011936D937C93CF010E94AA1089C05B018A
:1022D000A01AB10A4C01800E911EA0914704B09142
:1022E0004804612C712CE12CF12C109709F446C0A4
:1022F0008D919C911197A815B905B1F56C0142E03B
:10230000C40ED11CCA14DB0478F14C018A189B0856
:10231000640142E0C40ED11C1296BC901297139631
:10232000AC91B5E0CB16D10440F0B282A383918288
:102330008082D9016D937C9309C00E5F1F4F800F7F
:10234000911FF90191838083EB2DFA2FE114F104A1
:1023500031F0D7011396FC93EE93129741C0F0939E
:102360004804E09347043CC06816790608F43C0131
:102370007D0112960D90BC91A02DB7CF80914504A0
:102380009091460488169906E1F466167706C8F41B
:102390008091170190911801009741F48DB79EB775
:1023A00040911B0150911C01841B950BE817F90704
:1023B000C8F4F0934604E0934504F9017183608307
:1023C0000FC0CB010E9412107C01009759F0A801A8
:1023D000BE010E94FE11CE010E94AA10C70104C0D6
:1023E000CE0102C080E090E0CDB7DEB7EEE00C9405
:1023F000190F81E090E0F8940C940E12FB01DC01BF
:1024000002C001900D9241505040D8F70895FB0151
:10241000DC0101900D920020E1F70895F894FFCFC0
:102420000108000600050001003C000300B201B2F3
:1024300001140001000000000049048000000000B9
:1024400000F50038088C004201BD009B00AF000081
:10245000000000CC0138085602CB011C023402B344
:10246000014D6178696D6F20616C6561746F72698F
:102470006F3A200056616C6F7220696E636F7272E2
:102480006563746F2121004D696E696D6F20616C09
:102490006561746F72696F3A200043616E63696FA2
:1024A0006E20696E696369616C3A200043616D62F8
:1024B000696F206465207469656D706F3A200073E0
:1024C0006567756E646F730043616D62696F206448
:1024D0006520766F6C756D656E3A200043616E63A2
:1024E00069C3B36E20646574656E696461212120DF
:1024F000004EC3BA6D65726F20616C6561746F7256
:10250000696F3A2000636F6E7461646F72323A20B3
:102510000070726F746F636F6C6F20657175697690
:102520006F6361646F212100414C4541544F524912
:102530004F3A2000526570726F647563746F722039
:10254000646520617564696F20616C6561746F7288
:10255000696F2E004465736172726F6C6C61646F99
:1025600020706F723A204A6F6E617468616E2056F7
:10257000617267617300456D61696C3A206A6F6EC4
:10258000617468616E2E76617267617331313034C7
:1025900040676D61696C2E636F6D0043656C3A2016
:1025A00030393739313931323334005469656D701F
:1025B0006F20646520636F7274653A2000566F6CFB
:1025C000756D656E3A20004D696E696D6F3A200039
:1025D0004D6178696D6F3A200046696C74726F3A8C
:1025E00020000D0A00305800300053656E64696E9B
:0425F000673A200026
:107800000C94343C0C94513C0C94513C0C94513CE1
:107810000C94513C0C94513C0C94513C0C94513CB4
:107820000C94513C0C94513C0C94513C0C94513CA4
:107830000C94513C0C94513C0C94513C0C94513C94
:107840000C94513C0C94513C0C94513C0C94513C84
:107850000C94513C0C94513C0C94513C0C94513C74
:107860000C94513C0C94513C11241FBECFEFD8E036
:10787000DEBFCDBF11E0A0E0B1E0ECE9FFE702C060
:1078800005900D92A230B107D9F712E0A2E0B1E065
:1078900001C01D92AD30B107E1F70E942D3D0C945F
:1078A000CC3F0C94003C982F959595959595959582
:1078B000905D8F708A307CF0282F295A8091C0000B
:1078C00085FFFCCF9093C6008091C00085FFFCCF60
:1078D0002093C6000895282F205DF0CF982F809127
:1078E000C00085FFFCCF9093C6000895EF92FF92F1
:1078F0000F931F93EE24FF2487018091C00087FD22
:1079000017C00894E11CF11C011D111D81E4E8164B
:1079100082E4F8068FE0080780E0180770F3E09132
:107920000401F091050109958091C00087FFE9CF1E
:107930008091C6001F910F91FF90EF9008950E94D3
:10794000763C982F8091C00085FFFCCF9093C600B5
:1079500091362CF490330CF09053892F089597555D
:10796000892F08951F930E949F3C182F0E949F3CCF
:107970001295107F810F1F9108951F93182F882350
:1079800021F00E94763C1150E1F71F9108951F935A
:10799000182F0E94763C803249F0809103018F5F5E
:1079A000809303018530C1F01F9108958091C0003C
:1079B00085FFFCCF84E18093C6008091C00085FFE5
:1079C000FCCF1093C6008091C00085FFFCCF80E102
:1079D0008093C6001F910895E0910401F091050184
:1079E00009951F9108950E94763C803241F0809164
:1079F00003018F5F80930301853081F008958091AA
:107A0000C00085FFFCCF84E18093C6008091C00058
:107A100085FFFCCF80E18093C6000895E0910401CA
:107A2000F09105010995089540E951E08823A1F0FE
:107A30002D9A28EE33E0FA013197F1F721503040CA
:107A4000D1F72D9828EE33E0FA013197F1F7215064
:107A50003040D1F7815061F708953F924F925F9285
:107A60006F927F928F929F92AF92BF92CF92DF924E
:107A7000EF92FF920F931F93CF93DF93000080E16B
:107A80008093C4001092C50088E18093C10086E015
:107A90008093C2005098589A259A81E00E94143D24
:107AA00024E1F22E9EE1E92E85E9D82E0FE0C02ECA
:107AB00010E1B12EAA24A394B1E49B2EA6E58A2E50
:107AC000F2E57F2EE0E26E2E79E4572E63E5462E36
:107AD00050E5352E0E94763C8033B1F18133B9F107
:107AE000803409F46FC0813409F476C0823409F41B
:107AF00085C0853409F488C0803531F1823521F1A3
:107B0000813511F1853509F485C0863509F48DC0BC
:107B1000843609F496C0843709F403C1853709F423
:107B200072C1863709F466C0809103018F5F80932C
:107B30000301853079F6E0910401F0910501099582
:107B40000E94763C803351F60E94F33CC3CF0E94E2
:107B5000763C803249F78091C00085FFFCCFF092DF
:107B6000C6008091C00085FFFCCF9092C600809136
:107B7000C00085FFFCCF8092C6008091C00085FFC9
:107B8000FCCF7092C6008091C00085FFFCCF609250
:107B9000C6008091C00085FFFCCF5092C600809146
:107BA000C00085FFFCCF4092C6008091C00085FFD9
:107BB000FCCF3092C6008091C00085FFFCCFB09210
:107BC000C60088CF0E94763C863808F4BDCF0E945C
:107BD000763C0E94F33C7ECF0E94763C803809F4CC
:107BE0009CC0813809F40BC1823809F43CC1883942
:107BF00009F48FC080E00E94C73C6CCF84E10E94F2
:107C0000BD3C0E94F33C66CF85E00E94BD3C0E94D3
:107C1000F33C60CF0E94763C809306010E94763C44
:107C2000809307010E94F33C55CF0E94763C80333D
:107C300009F41DC183E00E94BD3C80E00E94C73C66
:107C400049CF0E94763C809309020E94763C809343
:107C5000080280910C028E7F80930C020E94763C79
:107C6000853409F415C18091080290910902892B8D
:107C700089F000E010E00E94763CF801E85FFE4FDA
:107C800080830F5F1F4F80910802909109020817AF
:107C9000190788F30E94763C803209F045CF809125
:107CA0000C0280FF01C16091060170910701660F0F
:107CB000771F7093070160930601A0910802B091AD
:107CC00009021097C9F0E8E0F1E09B01AD014E0F09
:107CD0005F1FF999FECF32BD21BD819180BDFA9A17
:107CE000F99A2F5F3F4FE417F50799F76A0F7B1F4B
:107CF00070930701609306018091C00085FFFCCF5F
:107D0000F092C6008091C00085FFFCCFB092C60003
:107D1000E1CE83E00E94C73CDDCE82E00E94C73CFA
:107D2000D9CE0E94763C809309020E94763C8093D3
:107D300008028091060190910701880F991F909386
:107D40000701809306010E94763C853409F4A6C0A1
:107D500080910C028E7F80930C020E94763C8032D0
:107D600009F0B8CE8091C00085FFFCCFF092C6002C
:107D7000609108027091090261157105B9F140E046
:107D800050E080910C02A82FA170B82FB27011C0E2
:107D9000BB2309F45CC0E0910601F0910701319624
:107DA000F0930701E09306014F5F5F4F46175707B7
:107DB000E8F4AA2369F3F999FECF209106013091E6
:107DC000070132BD21BDF89A90B58091C00085FFB2
:107DD000FCCF9093C6002F5F3F4F30930701209355
:107DE00006014F5F5F4F4617570718F38091C00099
:107DF00085FDE5CE8091C00085FFF8CFE0CE81E023
:107E00000E94C73C67CE0E94763C803209F08CCE3F
:107E10008091C00085FFFCCFF092C6008091C00029
:107E200085FFFCCFE092C6008091C00085FFFCCFAB
:107E3000D092C6008091C00085FFFCCFC092C600E2
:107E40008091C00085FFFCCFB092C60043CEE09188
:107E50000601F091070194918091C00085FFFCCF4D
:107E60009093C6009CCF80E10E94C73C33CE0E9415
:107E7000763C0E94763C182F0E94763C112309F430
:107E800083C0113009F484C08FE00E94C73C22CE29
:107E900080910C02816080930C02E5CE80910C02EF
:107EA000816080930C0259CF809107018823880F4D
:107EB000880B8A2180930B02809106019091070123
:107EC000880F991F90930701809306018091080203
:107ED00080FF09C080910802909109020196909359
:107EE000090280930802F894F999FECF1127E091D6
:107EF0000601F0910701C8E0D1E08091080290915D
:107F00000902103091F40091570001700130D9F34B
:107F100003E000935700E89500915700017001308D
:107F2000D9F301E100935700E89509901990009169
:107F3000570001700130D9F301E000935700E89534
:107F40001395103498F011270091570001700130FB
:107F5000D9F305E000935700E895009157000170B0
:107F60000130D9F301E100935700E895329602976A
:107F700009F0C7CF103011F00296E5CF112480919F
:107F8000C00085FFB9CEBCCE8EE10E94C73CA2CD19
:0C7F900085E90E94C73C9ECDF894FFCF0D
:027F9C00800063
:040000030000780081
:00000001FF