:100000000C9462000C9470070C9449070C94BE0782
:100010000C94BE070C94BE070C948A000C948A00C2
:100020000C948A000C948A000C948A000C948A0028
:100030000C948A000C9497070C948A000C948A0004
:100040000C94FF060C948A000C9473050C944D05D7
:100050000C948A000C948A000C948A000C948A00F8
:100060000C948A000C948A000000000024002700F1
:100070002A0000000008000201000003040700003D
:1000800000000000000000000000230026002900FE
:1000900000000000250028002B00040404040404D0
:1000A0000404020202020202030303030303010227
:1000B00004081020408001020408102001020408F6
:1000C0001020C60C11241FBECFEFD8E0DEBFCDBF7D
:1000D00012E0A0E0B1E0E0E1F4E202C005900D9290
:1000E000A03AB107D9F724E0A0EAB2E001C01D921E
:1000F000A531B207E1F710E0C2E6D0E004C02197D5
:10010000FE010E940410C136D107C9F70E94660A99
:100110000C9406120C940000FC01538D448D252F85
:1001200030E0842F90E0821B930B541710F0CF9691
:10013000089501970895FC01918D828D981761F0C3
:10014000828DDF01A80FB11D5D968C91928D9F5F0E
:100150009F73928F90E008958FEF9FEF0895FC01B9
:10016000918D828D981731F0828DE80FF11D858D6C
:1001700090E008958FEF9FEF0895FC01918D228DFF
:10018000892F90E0805C9F4F821B91098F73992784
:10019000089580E693E00E94BD0021E0892B09F4D8
:1001A00020E0822F0895FC01848DDF01A80FB11D8E
:1001B000A35ABF4F2C91848D90E001968F7399279D
:1001C000848FA689B7892C93A089B1898C9183707B
:1001D00080648C93938D848D981306C00288F38974
:1001E000E02D80818F7D80830895EF92FF920F93A1
:1001F0001F93CF93DF93EC0181E0888F9B8D8C8DD3
:10020000981305C0E889F989808185FD26C0F62EFE
:100210000B8D10E00F5F1F4F0F731127E02E8C8D99
:10022000E8120CC00FB607FCFACFE889F989808183
:1002300085FFF5CFCE010E94D300F1CF8B8DFE015B
:10024000E80FF11DE35AFF4FF0829FB7F8940B8F30
:10025000EA89FB89808180620AC09FB7F894EE89A1
:10026000FF896083E889F989808183708064808355
:100270009FBF81E090E0DF91CF911F910F91FF90A0
:10028000EF900895CF93DF93EC01888D8823C9F018
:10029000EA89FB89808185FD05C0A889B9898C918F
:1002A00086FD0FC00FB607FCF5CF808185FFF2CF2A
:1002B000A889B9898C9185FFEDCFCE010E94D3002A
:1002C000E7CFDF91CF910895833081F028F481301A
:1002D00099F08230A1F008958730A9F08830B9F004
:1002E0008430D1F4809180008F7D03C080918000A4
:1002F0008F7780938000089584B58F7702C084B58E
:100300008F7D84BD08958091B0008F7703C0809168
:10031000B0008F7D8093B00008953FB7F89480912E
:10032000F7029091F802A091F902B091FA0226B575
:10033000A89B05C02F3F19F00196A11DB11D3FBF1D
:10034000BA2FA92F982F8827820F911DA11DB11DAB
:10035000BC01CD0142E0660F771F881F991F4A95A7
:10036000D1F7089508952091FD023091FE022817DB
:10037000390771F49091FB028091FC02981741F0CB
:10038000E091FB02F0E0EE54FD4F808190E0089593
:100390008FEF9FEF089508951F93CF93DF93DC01B4
:1003A0005C968D919C915D97009739F421E030E047
:1003B00013963C932E9312973BC05196ED91FC916E
:1003C000529750962C915097322F30951FB75E96CA
:1003D0004C915E97742F727041FD6095F894408146
:1003E000772311F0422B01C043234083EC01219776
:1003F000F1F748E0508160FF02C0522B01C0532347
:100400005083EC012197F1F76695415099F780816F
:10041000772319F08323808302C0282B20831FBFFA
:100420005C968D919C915D970197F1F781E090E04A
:10043000DF91CF911F9108952091FD023091FE022E
:100440002817390771F48091FC022091FB0290E09B
:10045000805C9F4F821B910960E470E00E94DC0F7A
:10046000089580E090E008952091FD023091FE0211
:1004700028173907B9F49091FB028091FC02981774
:1004800089F0E091FB02F0E0EE54FD4F8081209175
:10049000FB0230E02F5F3F4F2F7333272093FB0287
:1004A00090E008958FEF9FEF0895089580E090E029
:1004B00008952091040330910503809108039091E1
:1004C0000903281739072CF080910A0390910B0338
:1004D00005C0809104039091050301969093050354
:1004E000809304038091A3029091A4028436910525
:1004F0000CF11092A4021092A30220915C0330919F
:100500005D038091090190910A012817390744F091
:1005100081E080935F0310925D0310925C03089565
:1005200080915C0390915D03019690935D038093AD
:100530005C0308958091A3029091A4020196909388
:10054000A4028093A30208950E94F1110C94B10EAD
:100550000C94A90E8F929F92AF92BF92CF92DF928E
:10056000EF92FF92CF93DF9380E693E00E94BD006D
:10057000892B09F481C280E693E00E949B008636B5
:1005800009F01DC28091B0029091B1029C012F5FD1
:100590003F4F3093B1022093B002FC01EA55FD4F6A
:1005A00010821092B1021092B0028091A602893698
:1005B00009F0F7C18091A7028836D9F52091A802E9
:1005C000022E000C330B205331094091A902809177
:1005D000AA022A30310508F04FC0042E000C550B3A
:1005E000405351099AE0949FE001959FD00D11244A
:1005F00094E6929FA001939F500D1124C40FD51F24
:10060000082E000C990BC097C80FD91F80910301C9
:10061000909104016C2F0E94A60281E491E00E9457
:100620005609CE010E946209D0930903C0930803C2
:1006300023C28091A7028C3669F18091A702893686
:1006400009F462C08091A702843709F492C08091B6
:10065000A702863709F0F6C08091A802082E000C88
:10066000990BC097C091A9020C2E000CDD0BE097EE
:100670008430910508F4BCC084E591E0DF91CF910E
:10068000FF90EF90DF90CF90BF90AF909F908F90B2
:100690000C9456092091A802022E000C330B205313
:1006A00031094091A9028091AA022A30310520F730
:1006B000042E000C550B405351099AE0949FE00121
:1006C000959FD00D112494E6929FA001939F500D09
:1006D0001124C40FD51F082E000C990BC097C80F0A
:1006E000D91F80910501909106016C2F0E94A602EE
:1006F00087E691E00E945609CE010E946209D093DC
:100700000B03C0930A03B8C12091A802022E000C6B
:10071000330B205331094091A9028091AA02243061
:10072000310508F0A9CF042E000C550B4053510998
:100730009AE0949FE001959FD00D112494E6929F3A
:10074000A001939F500D1124C40FD51F082E000C3B
:10075000990BC097C80FD91F809101019091020198
:100760006C2F0E94A6028AE791E00E945609CE01F2
:1007700081C02091A802022E000C330B20533109B6
:100780004091A9028091AA022430310508F074CF6B
:10079000042E000C550B405351099AE0949FE00140
:1007A000959FD00D112494E6929FA001939F500D28
:1007B0001124C40FD51F082E000C990BC097C80F29
:1007C000D91F80910B0190910C016C2F0E94A60201
:1007D0008CE891E00E945609CE010E9458098FE9E9
:1007E00091E00E94580AD0930A01C093090144C1C4
:1007F0004AE0489F9001499F300D1124C20FD31F3A
:10080000CF31D10514F0CEE1D0E080910701909175
:1008100008016C2F0E94A60288EA91E00E94560906
:10082000CE010E9462094C2F60E086E00E947A09A6
:1008300040E060E083E40E947A09D0931201C09303
:1008400011011AC18091A702833741F48CEB91E02A
:100850000E94580A40E060E086E197C08091A702BC
:100860008136A1F481ED91E00E94560980910C033C
:1008700090910D03DF91CF91FF90EF90DF90CF909B
:10088000BF90AF909F908F900C9462098091A702C7
:10089000803709F049C0C0900403D090050380E080
:1008A00090E021E0409106035091070384179507DB
:1008B0006CF4FC01EE0FFF1FE45FFC4F408151819F
:1008C0004C155D0509F420E00196ECCF211187C09D
:1008D00080900803909009038FEF881A980A092CDA
:1008E000000CAA08BB08C0900A03D0900B030D2C83
:1008F000000CEE08FF08C814D904EA04FB047CF6D7
:100900008C189D08AE08BF0839F00E94C20DA501E1
:1009100094010E94BF0E03C060E070E0CB01C60EE0
:10092000D71EE81EF91EBBCF8091A702823709F0BF
:10093000A3C02091A802022E000C330B20533109D2
:10094000E091A9028091AA022A30310508F094CEE4
:1009500060911101709112010E2E000CFF0BF097A7
:100960009AE09E9FD0019F9FB00D112494E6929F24
:10097000A001939F500D11244A0F5B1F082E000CFD
:10098000990BC097480F591F82E2DF91CF91FF90DA
:10099000EF90DF90CF90BF90AF909F908F900C948E
:1009A0007A0981EF91E0DF91CF91FF90EF90DF9096
:1009B000CF90BF90AF909F908F900C94580A209149
:1009C000B0023091B102A9014F5F5F4F5093B10265
:1009D0004093B002F901EA55FD4F80834DC08091EC
:1009E00006039091070397FD13C09C012150310924
:1009F000F901EE0FFF1FE45FFC4F40815181880F2A
:100A0000991FFC01E45FFC4F51834083C901EBCF88
:100A1000D0920D03C0920C03C0E0D0E08091060399
:100A200090910703C817D90784F4FE01EE0FFF1F4A
:100A3000E45FFC4F808191810E9458096CE280E65E
:100A400093E00E94F5002196E9CF85EE91E00E94A7
:100A5000560980910403909105030E9462098EE675
:100A600091E00E94560980910C0390910D030E9421
:100A7000620981E080935E03DF91CF91FF90EF9058
:100A8000DF90CF90BF90AF909F908F9008950E947D
:100A9000C90081110C94AA0208951F920F920FB6FB
:100AA0000F9211242F933F934F935F936F937F93F4
:100AB0008F939F93AF93BF93EF93FF9380E693E061
:100AC0000E94D300FF91EF91BF91AF919F918F91C1
:100AD0007F916F915F914F913F912F910F900FBE3A
:100AE0000F901F9018951F920F920FB60F9211241E
:100AF0002F938F939F93EF93FF93E0917003F09167
:100B000071038081E0917603F091770382FD12C03A
:100B10009081809179038F5F8F7320917A03821780
:100B200051F0E0917903F0E0E05AFC4F958F80930B
:100B3000790301C08081FF91EF919F918F912F9157
:100B40000F900FBE0F901F9018951F93CF93DF93B8
:100B5000282F30E0F901EE58FF4F8491F901E2555A
:100B6000FF4FD491F901E656FF4FC491CC23C1F059
:100B7000162F81110E946401EC2FF0E0EE0FFF1F91
:100B8000E057FF4FA591B4919FB7F894111104C09D
:100B90008C91D095D82302C0EC91DE2BDC939FBFC3
:100BA000DF91CF911F910895CF93DF9390E0FC01E7
:100BB000E255FF4F2491FC01E656FF4F84918823B4
:100BC00061F190E0880F991FFC01E859FF4FC59132
:100BD000D491FC01E057FF4FA591B491611109C078
:100BE0009FB7F8948881209582238883EC912E23E7
:100BF0000BC0623061F49FB7F8948881322F309532
:100C000083238883EC912E2B2C939FBF06C08FB734
:100C1000F894E8812E2B28838FBFDF91CF91089520
:100C20008F929F92AF92BF92CF92DF92EF92FF92FC
:100C30006B017C010E948D014B015C01C114D10448
:100C4000E104F104F1F00E948D01DC01CB0188196F
:100C50009909AA09BB09883E9340A105B10570F323
:100C600021E0C21AD108E108F10888EE880E83E07D
:100C7000981EA11CB11CC114D104E104F10419F7A0
:100C8000DDCFFF90EF90DF90CF90BF90AF909F901F
:100C90008F9008958F929F92AF92BF92CF92DF92E2
:100CA000EF92FF92CF9364E170E080E090E00E94C9
:100CB0001006E4E7F0E08491E0EBF0E0F490ECE97A
:100CC000F0E0C491CC2379F081110E946401EC2FF3
:100CD000F0E0EE0FFF1FEA57FF4FA591B491EC91A2
:100CE000EF2181E009F480E081708093A50280917A
:100CF000A50281117AC0C0900403D090050380E062
:100D000090E021E040910603509107038417950776
:100D10006CF4FC01EE0FFF1FE45FFC4F408151813A
:100D20004C155D0509F420E00196ECCF21112CC093
:100D300080900803909009038FEF881A980A092C75
:100D4000000CAA08BB08C0900A03D0900B030D2C1E
:100D5000000CEE08FF08C814D904EA04FB047CF672
:100D60008C189D08AE08BF0839F00E94C20DA5017D
:100D700094010E94BF0E03C060E070E0CB01C60E7C
:100D8000D71EE81EF91EBBCF809106039091070382
:100D900097FD13C09C0121503109F901EE0FFF1F8F
:100DA000E45FFC4F40815181880F991FFC01E45F93
:100DB000FC4F51834083C901EBCFD0920D03C09209
:100DC0000C0388E092E00E94560980910C039091F8
:100DD0000D030E94620981E080935E03E89882EB34
:100DE00091E090930E0180930D01CF91FF90EF90D1
:100DF000DF90CF90BF90AF909F908F9008951F92FB
:100E00000F920FB60F9211242F933F938F939F93BE
:100E1000AF93BF938091F3029091F402A091F502F9
:100E2000B091F6023091F20223E0230F2D3720F427
:100E30000196A11DB11D05C026E8230F0296A11D34
:100E4000B11D2093F2028093F3029093F402A093D9
:100E5000F502B093F6028091F7029091F802A0910A
:100E6000F902B091FA020196A11DB11D8093F7021B
:100E70009093F802A093F902B093FA02BF91AF9158
:100E80009F918F913F912F910F900FBE0F901F90C8
:100E900018951F920F920FB60F9211242F933F9324
:100EA0004F935F936F937F938F939F93AF93BF9372
:100EB000EF93FF93E0910F01F09110010995FF91DD
:100EC000EF91BF91AF919F918F917F916F915F91C2
:100ED0004F913F912F910F900FBE0F901F9018953B
:100EE0001F920F920FB60F9211242F933F934F939F
:100EF0005F936F937F938F939F93AF93BF93EF9382
:100F0000FF93E0910D01F0910E010995FF91EF9192
:100F1000BF91AF919F918F917F916F915F914F9111
:100F20003F912F910F900FBE0F901F9018951F9219
:100F30000F920FB60F9211242F933F934F935F930D
:100F40006F937F938F939F93AF93BF93EF93FF9391
:100F5000E091FF02F09100030995FF91EF91BF919D
:100F6000AF919F918F917F916F915F914F913F9141
:100F70002F910F900FBE0F901F9018951F920F92F8
:100F80000FB60F9211242F933F934F935F936F935C
:100F90007F938F939F93AF93BF93EF93FF93E091D2
:100FA000FD02F091FE02309709F451C0968DA6859E
:100FB000B785858591FF04C09C91892329F447C09A
:100FC0009C91892309F043C0A389B4899C918589A8
:100FD000809589238C93868997890197F1F7608D95
:100FE000718DA685B785558538E020E0CB01019746
:100FF000F1F7822F90E095958795282F4C91452306
:1010000009F02068315091F7868D81FD20958091FF
:10101000FC0290E001968F7399273091FB023817FC
:1010200049F0A091FC02B0E0AE54BD4F2C938093E8
:10103000FC0203C0868D8160868F828D938D01971F
:10104000F1F7A389B4899C918589892B8C93FF91B1
:10105000EF91BF91AF919F918F917F916F915F9130
:101060004F913F912F910F900FBE0F901F901895A9
:10107000CF92DF92EF92FF920F931F93CF93DF9364
:101080006C017A018B01C0E0D0E0CE15DF0581F064
:10109000D8016D918D01D601ED91FC910190F08107
:1010A000E02DC6010995892B11F02196EECF7E0126
:1010B000C701DF91CF911F910F91FF90EF90DF90CB
:1010C000CF900895009769F0FC0101900020E9F7A6
:1010D0003197AF01481B590BBC0180E693E00C949B
:1010E000380880E090E008958F929F92AF92BF926F
:1010F0000F931F93CF93DF93CDB7DEB7A1970FB6B2
:10110000F894DEBF0FBECDBF19A2423008F44AE00A
:101110008E010F5D1F4F842E912CA12CB12CA501A7
:1011200094010E94280FE62FB901CA01015011094C
:10113000EA3014F4E05D01C0E95CD801EC93232BA4
:10114000242B252B61F7C8010E946208A1960FB6D7
:10115000F894DEBF0FBECDBFDF91CF911F910F91ED
:10116000BF90AF909F908F900895CF92DF92EF92B3
:10117000FF92CF93DF936B017C016DE280E693E0F9
:101180000E94F500EC0166277727CB016C197D09D9
:101190008E099F094AE00E9474088C0F9D1FDF9101
:1011A000CF91FF90EF90DF90CF9008950F931F9312
:1011B000CF93DF93EC0188819981009729F02A81F0
:1011C0003B812617370788F48B016F5F7F4F0E94A2
:1011D0002B11009761F0998388831B830A832C81EC
:1011E0003D81232B11F4FC01108281E001C080E0DD
:1011F000DF91CF911F910F910895EF92FF920F937E
:101200001F93CF93DF936115710511F480E01CC02B
:1012100041155105C1F07B01EC018C819D818A0152
:10122000080F191FB801CE010E94D608882371F358
:10123000288139818C819D81B701820F931F0E9483
:10124000FF111D830C8381E0DF91CF911F910F91DE
:10125000FF90EF900895EF92FF920F931F93CF931B
:10126000DF93EC017B018A01BA010E94D608288134
:10127000398181110DC02115310519F0C9010E9474
:10128000A210198218821D821C821B821A8206C03B
:101290001D830C83B701C9010E94FF11CE01DF91AC
:1012A000CF911F910F91FF90EF9008950C946208D9
:1012B000BC01990F880B990B97FD0C94B5084AE077
:1012C0000C947408CF93DF93BC01990F880B990B92
:1012D00097FF03C00E94B50803C04AE00E9474084B
:1012E000EC018DE892E00E9462088C0F9D1FDF9157
:1012F000CF910895BF92CF92DF92EF92FF920F931A
:101300001F93CF93DF93CDB7DEB7A3970FB6F894B3
:10131000DEBF0FBECDBFD82EE62EF42E8E01065FA7
:101320001F4F88E0D8011D928A95E9F71F8E1E8E07
:1013300019A218A21BA21AA240E050E06FE872E0C6
:10134000CE014E960E942B0964E170E080E090E0AF
:101350000E9410068EE78A878FEF8B8786E08C8746
:10136000DD8681E08E87EF86F88A8FEE898B6E01AD
:10137000B2E1CB0ED11CFE0131967F0180910004B9
:1013800090910104D801BD908D01DC01ED91FC919B
:101390000190F081E02D6B2D0995198E188E1B8E12
:1013A0001A8E1D8E1C8E40E050E06FE872E0CE0178
:1013B00048960E942B0942E050E060E972E0CE01BD
:1013C00048960E942B09BFE0BB1540F041E050E079
:1013D00063E972E0CE0148960E94FD081B8A1A8AD2
:1013E0001D8A1C8A1F8A1E8A40E1B7018B2D90E05E
:1013F0000E94190EF70101900020E9F73197AF0123
:101400004E195F09B701C6010E942B094E895F89F9
:101410006A897B89CE0148960E94FD088A899B894A
:101420000E94A21041E050E06FEC71E0CE014896BE
:101430000E94FD084C8D5D8D688D798DCE014E9694
:101440000E94FD08888D998D0E94A210C016D106B9
:1014500009F094CF8091FF03882381F085E992E021
:101460000E9456094AA15BA16E8D7F8D80E693E0B4
:101470000E9438088DE892E00E94620868EE73E0EE
:1014800080E090E00E9410068E8D9F8D0E94A21039
:10149000A3960FB6F894DEBF0FBECDBFDF91CF91FC
:1014A0001F910F91FF90EF90DF90CF90BF90089524
:1014B000CF93DF930E946208EC018DE892E00E94D6
:1014C00062088C0F9D1FDF91CF910895CF93DF931A
:1014D00000D0CDB7DEB7789484B5826084BD84B582
:1014E000816084BD85B5826085BD85B5816085BD1F
:1014F00080916E00816080936E00109281008091D7
:10150000810082608093810080918100816080935E
:101510008100809180008160809380008091B10083
:1015200084608093B1008091B00081608093B000AE
:1015300080917A00846080937A0080917A00826042
:1015400080937A0080917A00816080937A00809104
:101550007A00806880937A001092C10083E08093C3
:10156000000180EC80937C0080917A0080648093FD
:101570007A0080917A0086FDFCCF6091780080919E
:10158000790070E0782B072E000C880B990B611501
:1015900071058105910511F00E94100E62E082E054
:1015A0000E94D40561E08DE00E94D40580910B017A
:1015B00090910C010E94A80290E090930A01809300
:1015C0000901E0917003F091710382E08083E09162
:1015D0006C03F0916D031082E0916E03F0916F0344
:1015E00087E6808310927803E0917403F09175038D
:1015F00086E08083E0917203F091730380818061C3
:101600008083E0917203F09173038081886080830E
:10161000E0917203F0917303808180688083E09190
:101620007203F091730380818F7D8083E0910004C9
:10163000F0910104138E128E118E108E178A168A65
:101640008DE991E0958F848F9485963108F04EC096
:101650002DEB30E0378B268B2BE931E0318F208F5B
:101660002CE231E0338F228F30916800983058F0AF
:1016700021E09E3008F420E091E0892F01C0880F1E
:101680002A95EAF701C084E0832B80936800948553
:10169000983038F09E3040F0963148F020E030E04D
:1016A00008C02DE630E005C02BE630E002C02CE695
:1016B00030E0348B238B983030F481E001C0880F08
:1016C0009A95EAF70EC0292F30E09E3018F4285082
:1016D000310902C02E50310981E001C0880F2A95DE
:1016E000EAF7858B848D958D0197F1F7828D938D27
:1016F000892B49F14091FD025091FE02E417F50754
:1017000011F14115510571F0DA0153962D913C917B
:101710005497D9019C91DA0155968C918095892333
:10172000D9018C93868D8E7F868F1092FC02109249
:10173000FB02F093FE02E093FD02A389B4899C9121
:101740008589892B8C9340E060E088E40E947A09C7
:1017500064EF71E080E090E00E94100642E060E0FB
:1017600089E00E947A0984E192E00E94580A84E3A9
:1017700092E00E94580A80910701909108010E940E
:10178000A80290E090931201809311014091110101
:101790005091120160E086E00E947A0940E060E02A
:1017A00083E40E947A0980910501909106010E94CC
:1017B000A80290E090930B0380930A0380910301A9
:1017C000909104010E94A80290E0909309038093F5
:1017D000080386E592E00E945609809109019091E4
:1017E0000A010E94620988E692E00E9456098091EF
:1017F0001101909112010E94620982E792E00E9419
:10180000560980910A0390910B030E9462098BE7AD
:1018100092E00E94560980910803909109030E946A
:101820006209809108039091090320910A03309185
:101830000B03821B930B019665E070E00E94DC0FA6
:10184000072E000C880B990B0E94450E0E948F0FEB
:101850000E94590F709307036093060384E892E097
:101860000E94560980910603909107030E94620925
:1018700080910A0390910B039093050380930403D6
:101880008AE496E090930E0180930D0180916900A7
:101890008C7F826080936900E89A80E18093810068
:1018A0001092800082E08093030380E197E290939E
:1018B000020380930103909387008093860082E166
:1018C0008093810089E592E0909300038093FF026A
:1018D00081E080936F0068EE73E080E090E00E940A
:1018E000100682E090E09A838983809101019091B3
:1018F00002010E94A802182F8AE791E00E9456096F
:10190000812F90E00E946209609111017091120193
:10191000412F82E20E947A0961E08DE00E94A505D4
:101920000AE416E080915F03882339F010925F0388
:1019300040E060E086E10E947A0980915E0388239E
:1019400011F110925E0310925D0310925C0360919E
:1019500011017091120140910C0350910D0382E22C
:101960000E947A0968EB7BE080E090E00E9410061C
:1019700010930E0100930D01809169008C7F8260AD
:1019800080936900E89A0E944705CCCFCF92DF92FE
:10199000EF92FF92CF93DF93109263031092620352
:1019A00098EEC92E93E0D92EE12CF12CC09264035D
:1019B000D0926503E0926603F092670381E291E0C2
:1019C000909361038093600385EC90E090936D03A6
:1019D00080936C0384EC90E090936F0380936E038C
:1019E00080EC90E0909371038093700381EC90E021
:1019F000909373038093720382EC90E0909375034D
:101A00008093740386EC90E0909377038093760341
:101A10001092790310927A0310927B0310927C0348
:101A20008FE0E2E0F4E0DF011D928A95E9F78FE1B3
:101A300090E00E940A10EC011B821A82CC82DD82A7
:101A4000EE82FF8283E391E0998388831F8A1E8A56
:101A5000198E188E1B8E1A8E1D8E1C8E6E8D6E7FAB
:101A60006D7F6E8F6695617081E068278BE00E94C4
:101A7000A50561E08BE00E94D405E9EBF0E0E4917C
:101A8000E88BE5EAF0E0E491F0E0EE0FFF1FE057AD
:101A9000FF4F859194919A8B898B60E08AE00E9438
:101AA000D4058E8D81FD04C061E08AE00E94A50509
:101AB0008AE08C87E8EBF0E0E491ED87E4EAF0E07F
:101AC000E491F0E0EE0FFF1FEA57FF4F85919491EC
:101AD0009F878E87D0930104C09300041092FF0368
:101AE000DF91CF91FF90EF90DF90CF9008958F928C
:101AF0009F92AF92BF92CF92DF92EF92FF92CF93DD
:101B0000DF93EC01688179818A819B816115710580
:101B10008105910521F464E279ED8BE597E02DE1F3
:101B200033EF41E050E00E94BF0E49015A019B0192
:101B3000AC01A7EAB1E40E94DE0E6B017C01ACEEC1
:101B4000B4EFA50194010E94EC0EDC01CB018C0DD9
:101B50009D1DAE1DBF1DB7FF03C00197A109B04871
:101B600088839983AA83BB83BC01CD019F77DF91D2
:101B7000CF91FF90EF90DF90CF90BF90AF909F906C
:101B80008F9008958F929F92AF92BF92CF92DF92E3
:101B9000EF92FF92609113017091140180911501F1
:101BA00090911601611571058105910521F464E29A
:101BB00079ED8BE597E02DE133EF41E050E00E94B5
:101BC000BF0E49015A019B01AC01A7EAB1E40E9492
:101BD000DE0E6B017C01ACEEB4EFA50194010E9416
:101BE000EC0EDC01CB018C0D9D1DAE1DBF1DB7FFA2
:101BF00003C00197A109B048809313019093140189
:101C0000A0931501B0931601BC01CD019F77FF9001
:101C1000EF90DF90CF90BF90AF909F908F900895FE
:101C20006093130170931401809315019093160132
:101C30000895BB27FB015527AA27880F991FAA1FC4
:101C4000A41710F0A41B83955051B9F7A05DAA33D7
:101C500008F0A95DA193009779F7B111B1931192A2
:101C6000CB010C94330EDC01FC01672F71917723BB
:101C7000E1F7329704C07C916D9370836291AE1747
:101C8000BF07C8F30895E89409C097FB3EF4909508
:101C90008095709561957F4F8F4F9F4F9923A9F045
:101CA000F92F96E9BB279395F695879577956795D4
:101CB000B795F111F8CFFAF4BB0F11F460FF1BC018
:101CC0006F5F7F4F8F4F9F4F16C0882311F096E9AB
:101CD00011C0772321F09EE8872F762F05C0662359
:101CE00071F096E8862F70E060E02AF09A95660F12
:101CF000771F881FDAF7880F9695879597F90895CB
:101D000057FD9058440F551F59F05F3F71F04795AC
:101D1000880F97FB991F61F09F3F79F08795089591
:101D2000121613061406551FF2CF4695F1DF08C0B0
:101D3000161617061806991FF1CF869571056105CD
:101D400008940895E894BB2766277727CB0197F975
:101D50000895F999FECF92BD81BDF89A992780B573
:101D60000895262FF999FECF1FBA92BD81BD20BDDF
:101D70000FB6F894FA9AF99A0FBE01960895052EB7
:101D800097FB1EF400940E94D60E57FD07D00E94C8
:101D9000280F07FC03D04EF40C94D60E50954095B6
:101DA000309521953F4F4F4F5F4F08959095809507
:101DB000709561957F4F8F4F9F4F08950E944A0FF6
:101DC000A59F900DB49F900DA49F800D911D11248F
:101DD0000895B7FF0C94DE0E0E94DE0E821B930B5B
:101DE00008952F923F924F925F926F927F928F92BF
:101DF0009F92AF92BF92CF92DF92EF92FF920F939A
:101E00001F93CF93DF93CDB7DEB7CA1BDB0B0FB6A3
:101E1000F894DEBF0FBECDBF09942A883988488860
:101E20005F846E847D848C849B84AA84B984C884F6
:101E3000DF80EE80FD800C811B81AA81B981CE0FED
:101E4000D11D0FB6F894DEBF0FBECDBFED010895D2
:101E5000A1E21A2EAA1BBB1BFD010DC0AA1FBB1FAE
:101E6000EE1FFF1FA217B307E407F50720F0A21B20
:101E7000B30BE40BF50B661F771F881F991F1A948D
:101E800069F760957095809590959B01AC01BD01B7
:101E9000CF010895A29FB001B39FC001A39F700D11
:101EA000811D1124911DB29F700D811D1124911D62
:101EB00008950E94600F6894B1110C94A30E0895C8
:101EC0000E94880E88F09F5798F0B92F9927B75134
:101ED000B0F0E1F0660F771F881F991F1AF0BA95CE
:101EE000C9F714C0B13091F00E94A20EB1E008957C
:101EF0000C94A20E672F782F8827B85F39F0B93F6E
:101F0000CCF3869577956795B395D9F73EF4909580
:101F10008095709561957F4F8F4F9F4F08950E94D8
:101F2000880EE8F09E37E8F09639B8F49E3848F409
:101F3000672F782F8827985FF9CF869577956795D3
:101F400093959539D0F3B62FB1706B0F711D811D2C
:101F500020F487957795679593950C94B30F0C941F
:101F6000CE0F0C94A30E882371F4772321F09850A0
:101F7000872B762F07C0662311F499270DC0905147
:101F8000862B70E060E02AF09A95660F771F881F15
:101F9000DAF7880F9695879597F908959F3F31F066
:101FA000915020F4879577956795B795880F911D87
:101FB0009695879597F9089597FB072E16F4009448
:101FC00007D077FD09D00E94F00F07FC05D03EF442
:101FD000909581959F4F0895709561957F4F0895D5
:101FE000AA1BBB1B51E107C0AA1FBB1FA617B7073F
:101FF00010F0A61BB70B881F991F5A95A9F780955B
:102000009095BC01CD010895EE0FFF1F0590F4914E
:10201000E02D09940F931F93CF93DF9382309105A6
:1020200010F482E090E0E0911304F091140420E0B9
:1020300030E0A0E0B0E0309719F140815181028199
:10204000138148175907C8F08417950769F410974A
:1020500031F012960C93129713961C9327C000939D
:1020600013041093140422C02115310519F04217EE
:10207000530718F49A01BD01EF01DF01F801DBCF2E
:1020800021153105F9F0281B390B2430310580F476
:102090008A819B816115710521F0FB019383828305
:1020A00004C09093140480931304FE01329644C03C
:1020B000FE01E20FF31F819391932250310939837E
:1020C00028833AC02091110430911204232B41F44B
:1020D0002091190130911A013093120420931104B8
:1020E00020911701309118012115310541F42DB7C8
:1020F0003EB740911B0150911C01241B350BE09110
:102100001104F0911204E217F307A0F42E1B3F0B09
:102110002817390778F0AC014E5F5F4F2417350759
:1021200048F04E0F5F1F50931204409311048193A7
:10213000919302C0E0E0F0E0CF01DF91CF911F91D9
:102140000F910895CF93DF93009709F481C0FC01AC
:10215000329713821282A0911304B0911404109745
:1021600081F420813181820F931F209111043091DD
:1021700012042817390751F5F0931204E093110463
:1021800067C0ED0120E030E0CE17DF0740F44A8160
:102190005B819E0141155105F1F0EA01F5CFD38332
:1021A000C28340815181840F951FC817D90759F404
:1021B00088819981840F951F0296918380838A81FB
:1021C0009B81938382832115310529F4F0931404B4
:1021D000E09313043DC0E901FB83EA8349915991DF
:1021E000C40FD51FEC17FD0761F480819181840F26
:1021F000951F0296E90199838883828193819B834D
:102200008A83E0E0F0E012968D919C9113970097FD
:1022100019F0FD01DC01F7CF8D919C9111979D0183
:102220002E5F3F4F820F931F2091110430911204B3
:102230002817390769F4309729F410921404109282
:10224000130402C013821282B0931204A0931104EB
:10225000DF91CF910895A0E0B0E0E1E3F1E10C94CB
:10226000F50EEC01009721F4CB010E940A10B4C0D6
:10227000FC01E60FF71F9C0122503109E217F3071A
:1022800008F4A8C0D9010D911C91119706171707E2
:10229000B0F00530110508F49BC0C80104978617FB
:1022A000970708F495C002501109061B170B0193FC
:1022B00011936D937C93CF010E94A21089C05B01A2
:1022C000A01AB10A4C01800E911EA0911304B09186
:1022D0001404612C712CE12CF12C109709F446C0E8
:1022E0008D919C911197A815B905B1F56C0142E04B
:1022F000C40ED11CCA14DB0478F14C018A189B0867
:10230000640142E0C40ED11C1296BC901297139641
:10231000AC91B5E0CB16D10440F0B282A383918298
:102320008082D9016D937C9309C00E5F1F4F800F8F
:10233000911FF90191838083EB2DFA2FE114F104B1
:1023400031F0D7011396FC93EE93129741C0F093AE
:102350001404E09313043CC06816790608F43C01A9
:102360007D0112960D90BC91A02DB7CF80911104E4
:102370009091120488169906E1F466167706C8F45F
:102380008091170190911801009741F48DB79EB785
:1023900040911B0150911C01841B950BE817F90714
:1023A000C8F4F0931204E0931104F901718360837F
:1023B0000FC0CB010E940A107C01009759F0A801C0
:1023C000BE010E94F611CE010E94A210C70104C0F6
:1023D000CE0102C080E090E0CDB7DEB7EEE00C9415
:1023E000110F81E090E0F8940C940612FB01DC01DF
:1023F00002C001900D9241505040D8F70895FB0162
:10240000DC0101900D920020E1F70895F894FFCFD0
:102410000108000600050001003C000300B201B203
:1024200001140001000000000015048000000000FD
:1024300000F50038088C004201BD009B00AF000091
:10244000000000CC0138085602CB011C023402B354
:10245000014D6178696D6F20616C6561746F72699F
:102460006F3A200056616C6F7220696E636F7272F2
:102470006563746F2121004D696E696D6F20616C19
:102480006561746F72696F3A200043616E63696FB2
:102490006E20696E696369616C3A200043616D6208
:1024A000696F206465207469656D706F3A200073F0
:1024B0006567756E646F730043616D62696F206458
:1024C0006520766F6C756D656E3A200043616E63B2
:1024D00069C3B36E20646574656E696461212120EF
:1024E000004EC3BA6D65726F20616C6561746F7266
:1024F000696F3A2000636F6E7461646F72323A20C4
:102500000070726F746F636F6C6F206571756976A0
:102510006F6361646F212100414C4541544F524922
:102520004F3A2000526570726F647563746F722049
:10253000646520617564696F20616C6561746F7298
:10254000696F2E004465736172726F6C6C61646FA9
:1025500020706F723A204A6F6E617468616E205607
:102560006172676173005469656D706F20646520E6
:10257000636F7274653A2000566F6C756D656E3AC4
:1025800020004D696E696D6F3A20004D6178696D6C
:102590006F3A200046696C74726F3A20000D0A0091
:1025A000305800300053656E64696E673A20000051
:00000001FF
