:100000000C943D010C94F3060C94CC060C9441071F
:100010000C9441070C9441070C9465010C94650104
:100020000C9465010C9465010C9465010C946501B8
:100030000C9465010C941A070C9465010C946501ED
:100040000C9482060C9465010C9442050C941C05DA
:100050000C9465010C9465010C9465010C94650188
:100060000C9465010C946501B40CB70CBA0CBD0C72
:10007000C00CC30CD60CE30CE60CE90CEC0CEF0C3A
:10008000F20CF50C5A0862086C0849086C084B0819
:100090006A0873086C086C086C086C086C086C08BB
:1000A0006C086C0873086C086C086C086C086C08A9
:1000B00000000000240027002A00000000080002C1
:1000C0000100000304070000000000000000444697
:1000D000506C6179657220436F6E65637461646F03
:1000E0002E00322E496E7365727465206C61206D2E
:1000F000656D6F7269612053442100312E5265761F
:10010000697365206C6120636F6E657869C3B36E37
:1001100021004E6F20736520686120706F646964F0
:100120006F20696E69636961723A00526570726F1F
:10013000647563746F7220646520617564696F20F3
:10014000616C6561746F72696F2E2062793A204A22
:100150006F6E617468616E205661726761730049E9
:100160006E204164766572746973650043616E6EDA
:100170006F742046696E642046696C650046696C40
:100180006520496E646578204F7574206F66204243
:100190006F756E6400436865636B2053756D204E08
:1001A0006F74204D61746368004765742057726FE7
:1001B0006E6720537461636B00536C656570696E84
:1001C000670043617264206E6F7420666F756E64A1
:1001D000004446506C617965724572726F723A00E4
:1001E00020506C61792046696E69736865642100EE
:1001F0004E756D6265723A0043617264204F6E6C99
:10020000696E652100436172642052656D6F766589
:100210006421004361726420496E73657274656481
:100220002100537461636B2057726F6E6721005415
:10023000696D65204F7574210000000000230026C1
:1002400000290000000000250028002B0004040401
:10025000040404040402020202020203030303036F
:10026000030102040810204080010204081020014C
:10027000020408102000290D0D0D11241FBECFEF20
:10028000D8E0DEBFCDBF12E0A0E0B1E0E8E9FEE1DA
:1002900002C005900D92A438B107D9F723E0A4E875
:1002A000B2E001C01D92AF3CB207E1F711E0CCE330
:1002B000D1E004C02197FE010E94200FCB33D1076B
:1002C000C9F70E94420A0C943F0F0C940000CF9291
:1002D000DF92EF92FF920F931F93CF93DF936C0106
:1002E0007A018B01C0E0D0E0CE15DF0581F0D801A6
:1002F0006D918D01D601ED91FC910190F081E02D81
:10030000C6010995892B11F02196EECF7E01C70118
:10031000DF91CF911F910F91FF90EF90DF90CF90E1
:100320000895FC01538D448D252F30E0842F90E0FB
:10033000821B930B541710F0CF96089501970895E0
:10034000FC01918D828D981761F0828DDF01A80FDD
:10035000B11D5D968C91928D9F5F9F73928F90E0FF
:1003600008958FEF9FEF0895FC01918D828D98176E
:1003700031F0828DE80FF11D858D90E008958FEFAB
:100380009FEF0895FC01918D228D892F90E0805C74
:100390009F4F821B91098F73992708958DEE92E0EC
:1003A0000E94C20121E0892B09F420E0822F0895E8
:1003B000FC01848DDF01A80FB11DA35ABF4F2C9102
:1003C000848D90E001968F739927848FA689B789D1
:1003D0002C93A089B1898C91837080648C93938DC8
:1003E000848D981306C00288F389E02D80818F7D6B
:1003F00080830895EF92FF920F931F93CF93DF9323
:10040000EC0181E0888F9B8D8C8D981305C0E88965
:10041000F989808185FD26C0F62E0B8D10E00F5FD7
:100420001F4F0F731127E02E8C8DE8120CC00FB6F2
:1004300007FCFACFE889F989808185FFF5CFCE01E5
:100440000E94D801F1CF8B8DFE01E80FF11DE35A18
:10045000FF4FF0829FB7F8940B8FEA89FB89808168
:1004600080620AC09FB7F894EE89FF896083E889AB
:10047000F98980818370806480839FBF81E090E0F0
:10048000DF91CF911F910F91FF90EF900895CF933F
:10049000DF93EC01888D8823C9F0EA89FB8980818C
:1004A00085FD05C0A889B9898C9186FD0FC00FB65E
:1004B00007FCF5CF808185FFF2CFA889B9898C919F
:1004C00085FFEDCFCE010E94D801E7CFDF91CF911C
:1004D0000895833081F028F4813099F08230A1F0C2
:1004E00008958730A9F08830B9F08430D1F4809134
:1004F00080008F7D03C0809180008F778093800083
:10050000089584B58F7702C084B58F7D84BD08952A
:100510008091B0008F7703C08091B0008F7D809371
:10052000B00008953FB7F8948091D2029091D30221
:10053000A091D402B091D50226B5A89B05C02F3F4B
:1005400019F00196A11DB11D3FBFBA2FA92F982FF9
:100550008827820F911DA11DB11DBC01CD0142E074
:10056000660F771F881F991F4A95D1F70895089540
:100570002091D8023091D9022817390771F490914F
:10058000D6028091D702981741F0E091D602F0E0B0
:10059000EF56FD4F808190E008958FEF9FEF089513
:1005A00008951F93CF93DF93DC015C968D919C910E
:1005B0005D97009739F421E030E013963C932E9339
:1005C00012973BC05196ED91FC91529750962C9109
:1005D0005097322F30951FB75E964C915E97742FCF
:1005E000727041FD6095F8944081772311F0422BA1
:1005F00001C043234083EC012197F1F748E050818B
:1006000060FF02C0522B01C053235083EC0121979D
:10061000F1F76695415099F78081772319F083238C
:10062000808302C0282B20831FBF5C968D919C91F4
:100630005D970197F1F781E090E0DF91CF911F91F5
:1006400008952091D8023091D9022817390771F402
:100650008091D7022091D60290E0805C9F4F821B50
:10066000910960E470E00E940C0F089580E090E032
:1006700008952091D8023091D90228173907B9F48A
:100680009091D6028091D702981789F0E091D60216
:10069000F0E0EF56FD4F80812091D60230E02F5FD1
:1006A0003F4F2F7333272093D60290E008958FEFAA
:1006B0009FEF0895089580E090E008952091E5026D
:1006C0003091E60280910B0190910C0128173907B7
:1006D00044F081E08093E8021092E6021092E50275
:1006E00008958091E5029091E60201969093E602CA
:1006F0008093E50208950E943A0F0C949B0ECF92CE
:10070000DF92EF92FF92CF93DF938DEE92E00E9403
:10071000C201892B09F483C18DEE92E00E94A001F1
:10072000863609F06DC180918F02909190029C01F4
:100730002F5F3F4F3093900220938F02FC01EB57C5
:10074000FD4F10821092900210928F0280918502CC
:10075000893609F04BC180918602843789F5209152
:100760008702022E000C330B20533109409188027E
:100770008091890224303105B0F5042E000C550B10
:10078000405351099AE0949FE001959FD00D1124A8
:1007900094E6929FA001939F500D1124C40FD51F82
:1007A000082E000C990BC097C80FD91F80910D011E
:1007B00090910E016C2F0E947D0381E491E033C083
:1007C000809186028637D1F580918702082E000C31
:1007D000990BC097C09188020C2E000CDD0BE0979E
:1007E0008430910550F082E591E0DF91CF91FF9048
:1007F000EF90DF90CF900C942C094AE0489F900135
:10080000499F300D1124C20FD31FCF31D10514F0F1
:10081000CEE1D0E08091090190910A016C2F0E94F5
:100820007D0385E691E00E942C09CE01DF91CF91F6
:10083000FF90EF90DF90CF900C949009809186020A
:10084000853609F064C0809187028233B1F19CF44F
:10085000803329F1813309F0E2C080910501909144
:10086000060161E00E947D0389E791E00E942C0966
:100870008DEA91E0BDC08433E1F16CF1853309F07C
:10088000CEC0809105019091060165E00E947D0334
:1008900089E791E00E942C0983EF91E0A9C0809143
:1008A00005019091060160E00E947D0389E791E0D7
:1008B0000E942C098AE991E09BC0809105019091EA
:1008C000060162E00E947D0389E791E00E942C0905
:1008D0008DEB91E08DC0809105019091060163E060
:1008E0000E947D0389E791E00E942C098EEC91E043
:1008F0007FC0809105019091060164E00E947D0314
:1009000089E791E00E942C098FED91E071C0809100
:1009100086028336F1F484E092E00E942C0960E0C4
:1009200070E08CE40E94BE0860E070E0CB010E94A1
:10093000B609811103C08FEF9FEF78CF1092AE03FD
:100940008091AA038B30B9F78091AC039091AD03ED
:100950006DCF80918602813649F486E192E00E9453
:100960002C098091E3029091E40260CF809186028D
:10097000803709F054C0C091E302D091E402C090E6
:10098000DA02D090DB020D2C000CEE08FF0882E0AA
:10099000C816D104E104F10484F00E943C0EA701C2
:1009A000960121503109410951090E94A90EDC012B
:1009B000CB010196A11DB11D04C081E090E0A0E033
:1009C000B0E09093E4028093E3028091E30290917F
:1009D000E402C817D90799F28091E3029091E402EA
:1009E0000E94900981E08093E70219C08AE292E0B8
:1009F000DF91CF91FF90EF90DF90CF900C94A809FA
:100A000020918F0230919002A9014F5F5F4F509368
:100A1000900240938F02F901EB57FD4F8083DF91E5
:100A2000CF91FF90EF90DF90CF9008950E94CE017C
:100A300081110C947F0308951F920F920FB60F92AD
:100A400011242F933F934F935F936F937F938F93D3
:100A50009F93AF93BF93EF93FF938DEE92E00E942D
:100A6000D801FF91EF91BF91AF919F918F917F91AD
:100A70006F915F914F913F912F910F900FBE0F900B
:100A80001F9018951F920F920FB60F9211242F935B
:100A90008F939F93EF93FF93E091FD02F091FE02FD
:100AA0008081E0910303F091040382FD12C09081E4
:100AB000809106038F5F8F7320910703821751F097
:100AC000E0910603F0E0E351FD4F958F809306031C
:100AD00001C08081FF91EF919F918F912F910F9095
:100AE0000FBE0F901F9018951F93CF93DF93282F61
:100AF00030E0F901E654FF4F8491F901EF59FD4FC1
:100B0000D491F901E35BFD4FC491CC23C1F0162FC2
:100B100081110E946902EC2FF0E0EE0FFF1FED5BE8
:100B2000FD4FA591B4919FB7F894111104C08C9119
:100B3000D095D82302C0EC91DE2BDC939FBFDF91D0
:100B4000CF911F910895CF93DF9390E0FC01EF596F
:100B5000FD4F2491FC01E35BFD4F8491882361F1FB
:100B600090E0880F991FFC01E055FF4FC591D4918B
:100B7000FC01ED5BFD4FA591B491611109C09FB7D8
:100B8000F8948881209582238883EC912E230BC0D2
:100B9000623061F49FB7F8948881322F30958323B7
:100BA0008883EC912E2B2C939FBF06C08FB7F894AF
:100BB000E8812E2B28838FBFDF91CF9108958F92EC
:100BC0009F92AF92BF92CF92DF92EF92FF926B0112
:100BD0007C010E9492024B015C01C114D104E1042A
:100BE000F104F1F00E949202DC01CB01881999090D
:100BF000AA09BB09883E9340A105B10570F321E025
:100C0000C21AD108E108F10888EE880E83E0981E28
:100C1000A11CB11CC114D104E104F10419F7DDCF0A
:100C2000FF90EF90DF90CF90BF90AF909F908F900C
:100C30000895CF92DF92EF92FF92CF93DF936AE015
:100C400070E080E090E00E94DF05ECEBF0E0849142
:100C5000E3E6F2E0D491EFE4F2E0C491CC2379F042
:100C600081110E946902EC2FF0E0EE0FFF1FE75C9C
:100C7000FD4FA591B491EC91ED2381E009F480E062
:100C800081708093840280918402811134C0C0916C
:100C9000E302D091E402C090DA02D090DB020D2C86
:100CA000000CEE08FF0882E0C816D104E104F1044C
:100CB00084F00E943C0EA7019601215031094109A0
:100CC00051090E94A90EDC01CB010196A11DB11DA5
:100CD00004C081E090E0A0E0B0E09093E402809353
:100CE000E3028091E3029091E402C817D90799F2D8
:100CF00081E08093E702DF91CF91FF90EF90DF904A
:100D0000CF9008951F920F920FB60F9211242F9338
:100D10003F938F939F93AF93BF938091E9029091FC
:100D2000EA02A091EB02B091EC023091D10223E0F3
:100D3000230F2D3720F40196A11DB11D05C026E813
:100D4000230F0296A11DB11D2093D1028093E902C9
:100D50009093EA02A093EB02B093EC028091D2024E
:100D60009091D302A091D402B091D5020196A11D19
:100D7000B11D8093D2029093D302A093D402B0937A
:100D8000D502BF91AF919F918F913F912F910F907D
:100D90000FBE0F901F9018951F920F920FB60F92D3
:100DA00011242F933F934F935F936F937F938F9370
:100DB0009F93AF93BF93EF93FF93E0910301F09163
:100DC00004010995FF91EF91BF91AF919F918F9190
:100DD0007F916F915F914F913F912F910F900FBE37
:100DE0000F901F9018951F920F920FB60F9211241B
:100DF0002F933F934F935F936F937F938F939F9323
:100E0000AF93BF93EF93FF93E0910101F091020143
:100E10000995FF91EF91BF91AF919F918F917F9134
:100E20006F915F914F913F912F910F900FBE0F9057
:100E30001F9018951F920F920FB60F9211242F93A7
:100E40003F934F935F936F937F938F939F93AF9352
:100E5000BF93EF93FF93E091DE02F091DF020995DB
:100E6000FF91EF91BF91AF919F918F917F916F9182
:100E70005F914F913F912F910F900FBE0F901F9058
:100E800018951F920F920FB60F9211242F933F9334
:100E90004F935F936F937F938F939F93AF93BF9382
:100EA000EF93FF93E091D802F091D902309709F4C3
:100EB00051C0968DA685B785858591FF04C09C910C
:100EC000892329F447C09C91892309F043C0A38951
:100ED000B4899C918589809589238C93868997898B
:100EE0000197F1F7608D718DA685B785558538E03E
:100EF00020E0CB010197F1F7822F90E0959587953F
:100F0000282F4C91452309F02068315091F7868DA8
:100F100081FD20958091D70290E001968F739927EB
:100F20003091D602381749F0A091D702B0E0AF5601
:100F3000BD4F2C938093D70203C0868D8160868F2E
:100F4000828D938D0197F1F7A389B4899C9185894E
:100F5000892B8C93FF91EF91BF91AF919F918F91CE
:100F60007F916F915F914F913F912F910F900FBEA5
:100F70000F901F901895CF9380918A0390918B03C7
:100F8000DC01ED91FC910084F185E02D0995892B20
:100F900009F4B9C060E070E0CB010E94DF05C091A8
:100FA000A80380918A0390918B03DC01ED91FC9161
:100FB0000284F385E02DC11108C009958093940344
:100FC0008E37D1F68091A8039AC00995EC2FF0E0F6
:100FD000E657FC4F82878091A8038230A1F08930C8
:100FE000C1F0813009F08BC0909195039F3F09F4C7
:100FF00086C01092A80381E08093AA031092AD03EB
:101000001092AC03B1C090919603963009F477C06A
:10101000F0CF80919D038F3E61F7E5E9F3E08BE926
:1010200093E020E030E04191240F311D8E179F079F
:10103000D1F780919B0390E0982F882740919C03E3
:10104000840F911D3195219531098217930789F6F7
:101050001092A803E0919703E13409F44DC0E093A6
:10106000AB038091990390E0982F882720919A03F1
:10107000820F911D9093AD038093AC034E2F50E0EF
:10108000FA01FA97E631F10570F5EE5BFF4F0C942B
:10109000200F85E022C080FF02C089E01EC081FFD2
:1010A00002C084E01AC083709927892B09F462C0BA
:1010B0008AE013C080FF02C087E00FC081FF5AC0E2
:1010C00082E00BC080FF02C088E007C081FF52C0F1
:1010D00083E003C086E001C08BE08093AA0381E037
:1010E0008093AE0347C081E08093AA031092AD03C2
:1010F0001092AC038093AE031092AF033BC08F5F9E
:101100008093A80339CF8091AF03882399F12FB73B
:10111000F8948091E9029091EA02A091EB02B091DB
:10112000EC022FBF40918C0350918D0360918E0390
:1011300070918F03841B950BA60BB70B4091900306
:1011400050919103609192037091930384179507D6
:10115000A607B70778F01092A8031092AA0310927E
:10116000AD031092AC0381E08093AE031092AF0305
:1011700080E002C08091AE03CF9108958093A103D7
:101180007093A3036093A403EFE9F3E025EA33E04F
:1011900080E090E04191840F911D2E173F07D1F719
:1011A0009195819591099093A5038093A6038091D1
:1011B000A203882361F08091AF03882341F060E0AF
:1011C00070E0CB010E94DF050E94BB07F4CF809145
:1011D0008A0390918B03DC01ED91FC910280F381F5
:1011E000E02D4AE050E06EE973E009952FB7F894DE
:1011F0008091E9029091EA02A091EB02B091EC0299
:101200002FBF80938C0390938D03A0938E03B09394
:101210008F038091A20391E0811101C090E090932F
:10122000AF03811106C06AE070E080E090E00C94AA
:10123000DF050895009769F0FC0101900020E9F7AF
:101240003197AF01481B590BBC018DEE92E00C9415
:10125000670180E090E008950C941A098F929F92A4
:10126000AF92BF920F931F93CF93DF93CDB7DEB7AB
:10127000A1970FB6F894DEBF0FBECDBF19A24230C2
:1012800008F44AE08E010F5D1F4F842E912CA12C93
:10129000B12CA50194010E94DB0EE62FB901CA0111
:1012A00001501109EA3014F4E05D01C0E95CD80195
:1012B000EC93232B242B252B61F7C8010E941A09DC
:1012C000A1960FB6F894DEBF0FBECDBFDF91CF91D0
:1012D0001F910F91BF90AF909F908F900895CF92E4
:1012E000DF92EF92FF92CF93DF936B017C016DE26F
:1012F0008DEE92E00E94FA01EC0166277727CB0180
:101300006C197D098E099F094AE00E942E098C0FF5
:101310009D1FDF91CF91FF90EF90DF90CF900895C8
:10132000CF93DF93BC01990F880B990B97FF03C0F4
:101330000E946F0903C04AE00E942E09EC0181E47B
:1013400092E00E941A098C0F9D1FDF91CF910895A2
:10135000CF93DF930E941A09EC0181E492E00E948E
:101360001A098C0F9D1FDF91CF9108958F929F9244
:10137000AF92BF92CF92DF92EF92FF926B017C010E
:101380008FB7F8948090E9029090EA02A090EB0267
:10139000B090EC028FBFC114D104E104F10441F418
:1013A000C0909003D0909103E0909203F09093034B
:1013B0000E94BB0781111AC09FB7F8944091E902BF
:1013C0005091EA026091EB027091EC029FBF4819C4
:1013D00059096A097B09C416D506E606F70630F0F6
:1013E00060E070E0CB010E94DF05E2CFFF90EF905C
:1013F000DF90CF90BF90AF909F908F90089560E066
:1014000070E088E40E94BE0860E070E0CB010E94BA
:10141000B609811103C08FEF9FEF08951092AE03BC
:101420008091AA038B30B9F78091AC039091AD0302
:1014300008950F931F93CF93DF938C01C0E0D0E00A
:10144000F801EC0FFD1F6491662341F08DEE92E0F0
:101450000E94FA01892B11F02196F2CFCE01DF9183
:10146000CF911F910F910895CF93DF930E94190A96
:10147000EC0181E492E00E941A098C0F9D1FDF911C
:10148000CF910895789484B5826084BD84B58160DD
:1014900084BD85B5826085BD85B5816085BD80913F
:1014A0006E00816080936E001092810080918100B7
:1014B00082608093810080918100816080938100AF
:1014C000809180008160809380008091B100846071
:1014D0008093B1008091B00081608093B0008091D2
:1014E0007A00846080937A0080917A008260809391
:1014F0007A0080917A00816080937A0080917A00EE
:10150000806880937A001092C10083E0809300018C
:1015100080EC80937C0080917A00806480937A00D4
:1015200080917A0086FDFCCF6091780080917900EF
:1015300070E0782B072E000C880B990B6115710554
:101540008105910511F00E948A0E62E082E00E94FE
:10155000A30589E196E090930201809301018091B7
:1015600069008C7F826080936900E89A61E08DE079
:101570000E94A30580910D0190910E010E94930E8F
:1015800090E090930C0180930B0180E180938100A7
:101590001092800084E08093E20282E19AE79093C7
:1015A000E1028093E002909387008093860084E1BB
:1015B000809381008EE593E09093DF028093DE02BA
:1015C00081E080936F001092CB031092CA031092B7
:1015D000C9031092C8031092C7031092C6038DE985
:1015E00091E09093CD038093CC039091BC0396310E
:1015F00008F058C02DEB30E03093C7032093C603AA
:101600002BE931E03093C9032093C8032CE231E089
:101610003093CB032093CA0340916800983058F070
:1016200031E09E3008F430E021E0822F01C0880FC5
:101630003A95EAF701C084E0842B809368009830E3
:1016400038F09E3040F0963148F020E030E008C09D
:101650002DE630E005C02BE630E002C02CE630E09D
:101660003093C4032093C303983030F481E001C069
:10167000880F9A95EAF70EC0292F30E09E3018F4B3
:101680002850310902C02E50310981E001C0880F75
:101690002A95EAF78093C5038091CC039091CD03FE
:1016A0000197F1F78091CA039091CB03892B49F1FF
:1016B000E091D802F091D90283E0E03BF80709F10C
:1016C000309739F0A389B4899C91858980958923C5
:1016D0008C938091CE038E7F8093CE031092D7029D
:1016E0001092D60280EB93E09093D9028093D802B7
:1016F000E091C303F091C40390818091C503892BCD
:101700008083E091FD02F091FE0282E08083E0910F
:10171000F902F091FA021082E091FB02F091FC02D2
:1017200087E6808310920503E0910103F0910203A4
:1017300086E08083E091FF02F09100038081806168
:101740008083E091FF02F0910003808188608083B4
:10175000E091FF02F0910003808180688083E09136
:10176000FF02F091000380818F7D808381E492E00D
:101770000E941A098BE291E00E94340A61E08DE038
:101780000E94740580EB93E090938B0380938A030F
:1017900081E08093A20360E070E08CE00E94BE08CC
:1017A00060ED77E080E090E00E94B60968EC70E0C0
:1017B00080E090E00E94DF051092AE038091AA03C2
:1017C0008430E9F58EEC90E00E94340A80910901A2
:1017D00090910A010E94930E90E0909308018093EB
:1017E00007016091070170910801772786E00E9448
:1017F000BE0880910501909106010E94930E90E031
:101800009093DD028093DC028091DC029091DD02F6
:101810008230910509F445C04CF4009709F44AC0A0
:10182000019709F047C061E070E046C0843091053F
:10183000F1F1D4F10597F1F565E070E03DC0893034
:1018400009F282E191E00E94340A8BEF90E00E945D
:10185000340A82EE90E00E94340A00EB13E0C1E00B
:1018600010938B0300938A03C093A20360E070E09F
:101870008CE00E94BE0860ED77E080E090E00E947E
:10188000B60968EC70E080E090E00E94DF051092FD
:10189000AE038091AA03843009F494CF893001F714
:1018A00091CF62E070E008C063E070E005C064E0E2
:1018B00070E002C060E070E087E00E94BE0862E075
:1018C00070E089E00E94BE0868EC70E080E090E083
:1018D0000E94DF0584E492E00E942C090E94FF0927
:1018E0000E9490090E94FF099093DB028093DA0224
:1018F0008AE592E00E942C0980910B0190910C01E5
:101900000E9490098CE692E00E942C0980910701C8
:10191000909108010E94900986E792E00E942C09AC
:101920008091DC029091DD020E9490098091E80292
:10193000882339F01092E80260E070E086E10E94AE
:10194000BE081092AE03C091AC03D091AD03E091FC
:10195000AA038E2F90E08730910508F04AC0FC0161
:10196000EC5CFF4F0C94200F8FE292E040C082E2CB
:1019700092E03DC083E192E03AC085E092E037C05A
:1019800088EF91E034C080EF91E00E94190ABE0117
:10199000DD0F880B990B97FF03C00E946F0903C0EE
:1019A0004AE00E942E0980EE91E021C081ED91E095
:1019B0000E94190AFE013197E730F105D0F4E55C89
:1019C000FF4F0C94200F82EC91E011C089EB91E065
:1019D0000EC089EA91E00BC085E991E008C08DE76F
:1019E00091E005C08CE691E002C08FE591E00E9495
:1019F000340A8091E702882369F01092E70210927E
:101A0000E6021092E5026091E3027091E40283E045
:101A10000E94BE080E94160589CF83E391E090934F
:101A2000B1038093B0038091D8029091D902805B7A
:101A3000934071F4E091C303F091C40390818091CD
:101A4000C5038095892380831092D9021092D80211
:101A500008951092F0021092EF0288EE93E0A0E059
:101A6000B0E08093F1029093F202A093F302B0935E
:101A7000F40221E231E03093EE022093ED0225ECF6
:101A800030E03093FA022093F90224EC30E03093F6
:101A9000FC022093FB0220EC30E03093FE02209306
:101AA000FD0221EC30E0309300032093FF0222EC92
:101AB00030E0309302032093010326EC30E03093B2
:101AC000040320930303109206031092070310925D
:101AD0000803109209031092B3031092B20380938B
:101AE000B4039093B503A093B603B093B70383E315
:101AF00091E09093B1038093B0031092C7031092CA
:101B0000C6031092C9031092C8031092CB0310921F
:101B1000CA031092CD031092CC036091CE036E7F66
:101B20006D7F6093CE036695617081E068278BE0DE
:101B30000E94740561E08BE00E94A305ECE6F2E0F0
:101B4000E491E093C003E8E5F2E0E491F0E0EE0F09
:101B5000FF1FED5BFD4F859194919093C20380939D
:101B6000C10360E08AE00E94A3058091CE0381FD5D
:101B700004C061E08AE00E9474058AE08093BC039F
:101B8000EBE6F2E0E491E093BD03E7E5F2E0E491F7
:101B9000F0E0EE0FFF1FE75CFD4F2591349130938D
:101BA000BF032093BE0344EF51E060E070E0409338
:101BB0009003509391036093920370939303E3E136
:101BC000F1E0AEE9B3E001900D928A95E1F7109251
:101BD000A80382E08093A9031092AE031092AF0392
:101BE00008958F929F92AF92BF92CF92DF92EF9221
:101BF000FF92CF93DF93EC01688179818A819B8189
:101C0000611571058105910521F464E279ED8BE59B
:101C100097E02DE133EF41E050E00E94A90E490129
:101C20005A019B01AC01A7EAB1E40E94C80E6B0106
:101C30007C01ACEEB4EFA50194010E94D60EDC014C
:101C4000CB018C0D9D1DAE1DBF1DB7FF03C00197BD
:101C5000A109B04888839983AA83BB83BC01CD01C5
:101C60009F77DF91CF91FF90EF90DF90CF90BF9063
:101C7000AF909F908F9008958F929F92AF92BF9256
:101C8000CF92DF92EF92FF9260910F01709110015D
:101C900080911101909112016115710581059105E5
:101CA00021F464E279ED8BE597E02DE133EF41E03B
:101CB00050E00E94A90E49015A019B01AC01A7EA1C
:101CC000B1E40E94C80E6B017C01ACEEB4EFA5013B
:101CD00094010E94D60EDC01CB018C0D9D1DAE1D22
:101CE000BF1DB7FF03C00197A109B04880930F0142
:101CF00090931001A0931101B0931201BC01CD018A
:101D00009F77FF90EF90DF90CF90BF90AF909F9024
:101D10008F90089560930F017093100180931101CB
:101D2000909312010895F999FECF92BD81BDF89A62
:101D3000992780B50895262FF999FECF1FBA92BD35
:101D400081BD20BD0FB6F894FA9AF99A0FBE01969C
:101D50000895052E97FB1EF400940E94C00E57FDB7
:101D600007D00E94DB0E07FC03D04EF40C94C00E8B
:101D700050954095309521953F4F4F4F5F4F0895B7
:101D800090958095709561957F4F8F4F9F4F0895E7
:101D90000E94FD0EA59F900DB49F900DA49F800DF5
:101DA000911D11240895B7FF0C94C80E0E94C80E0F
:101DB000821B930B0895A1E21A2EAA1BBB1BFD01E7
:101DC0000DC0AA1FBB1FEE1FFF1FA217B307E4071A
:101DD000F50720F0A21BB30BE40BF50B661F771F72
:101DE000881F991F1A9469F7609570958095909552
:101DF0009B01AC01BD01CF010895A29FB001B39F2B
:101E0000C001A39F700D811D1124911DB29F700D03
:101E1000811D1124911D089597FB072E16F400943F
:101E200007D077FD09D00E94260F07FC05D03EF4AD
:101E3000909581959F4F0895709561957F4F089576
:101E4000EE0FFF1F0590F491E02D0994AA1BBB1B18
:101E500051E107C0AA1FBB1FA617B70710F0A61BAA
:101E6000B70B881F991F5A95A9F780959095BC01CB
:101E7000CD01089581E090E0F8940C943F0F11E0BB
:101E8000CCE3D1E004C0FE010E94200F2196CD33A7
:081E9000D107C9F7F894FFCF58
:101E980001B702B7020200140001003C0003000170
:101EA8000000007EFF06000100000000EF000000B7
:101EB80000FA01670191014702C201A001B40100C3
:101EC800000000D10267015B03D00221033903B887
:101ED8000243616D62696F206465207469656D7085
:101EE8006F0056616C6F7220696E636F7272656302
:101EF800746F21210043616D62696F2064652076EB
:101F08006F6C756D656E3A200043616D62696F2074
:101F180064652076616C6F722064652065717561F7
:101F28006C697A61646F723A20004446504C41599A
:101F380045525F45515F4E4F524D414C004446500B
:101F48004C415945525F45515F504F5000444650EF
:101F58004C415945525F45515F524F434B004446EF
:101F6800504C415945525F45515F4A415A5A0044C5
:101F780046504C415945525F45515F434C4153537C
:101F88004943004446504C415945525F45515F42D0
:101F98004153530043616E6369C3B36E2061637438
:101FA80075616C3A20004EC3BA6D65726F20616C22
:101FB8006561746F72696F3A200070726F746F6335
:101FC8006F6C6F2065717569766F6361646F21212D
:101FD800000D0A004E756D65726F2064652063619F
:101FE8006E63696F6E65733A20005469656D706F32
:101FF80020646520636F7274653A2000566F6C75B3
:102008006D656E3A2000456375616C697A61646F2D
:04201800723A2000F8
:00000001FF
