:100000000C944D010C9472050C944B050C94C00596
:100010000C94C0050C94C0050C9475010C947501EA
:100020000C9475010C9475010C9475010C94750178
:100030000C9475010C9499050C9475010C94750140
:100040000C9401050C9475010C94BB030C9495035E
:100050000C9475010C9475010C9475010C94750148
:100060000C9475010C947501070B0A0B0D0B100B0A
:10007000130B160B290B370B3A0B3D0B400B430BA5
:10008000460B490B03070B071507F2061507F40685
:1000900013071C071507150715071507150715077B
:1000A000150715071C071507150715071507150769
:1000B00000000000240027002A00000000080002C1
:1000C0000100000304070000000000000000444697
:1000D000506C61796572204D696E69206F6E6C6934
:1000E0006E652E00322E506C6561736520696E73EB
:1000F00065727420746865205344206361726421C2
:1001000000312E506C6561736520726563686563AC
:100110006B2074686520636F6E6E656374696F6EC3
:100120002100556E61626C6520746F20626567699D
:100130006E3A00496E697469616C697A696E67200C
:100140004446506C61796572202E2E2E20284D6118
:10015000792074616B6520337E35207365636F6E23
:10016000647329004446526F626F74204446506C99
:1001700061796572204D696E692044656D6F004933
:100180006E204164766572746973650043616E6EBA
:100190006F742046696E642046696C650046696C20
:1001A0006520496E646578204F7574206F66204223
:1001B0006F756E6400436865636B2053756D204EE8
:1001C0006F74204D61746368004765742057726FC7
:1001D0006E6720537461636B00536C656570696E64
:1001E000670043617264206E6F7420666F756E6481
:1001F000004446506C617965724572726F723A00C4
:1002000020506C61792046696E69736865642100CD
:100210004E756D6265723A0043617264204F6E6C78
:10022000696E652100436172642052656D6F766569
:100230006421004361726420496E73657274656461
:100240002100537461636B2057726F6E67210054F5
:10025000696D65204F7574210000000000230026A1
:1002600000290000000000250028002B00040404E1
:10027000040404040402020202020203030303034F
:10028000030102040810204080010204081020012C
:100290000204081020006A0B4E0B11241FBECFEF82
:1002A000D8E0DEBFCDBF11E0A0E0B1E0EEEEFAE1B4
:1002B00002C005900D92AE36B107D9F722E0AEE646
:1002C000B1E001C01D92A93AB207E1F711E0CCE418
:1002D000D1E004C02197FE010E944B0DCB34D10721
:1002E000C9F70E94DB080C946A0D0C940000FC0115
:1002F000538D448D252F30E0842F90E0821B930B8B
:10030000541710F0CF96089501970895FC01918D30
:10031000828D981761F0828DDF01A80FB11D5D9667
:100320008C91928D9F5F9F73928F90E008958FEFD5
:100330009FEF0895FC01918D828D981731F0828D89
:10034000E80FF11D858D90E008958FEF9FEF0895E0
:10035000FC01918D228D892F90E0805C9F4F821B44
:1003600091098F739927089587EC91E00E94A80165
:1003700021E0892B09F420E0822F0895FC01848D6F
:10038000DF01A80FB11DA35ABF4F2C91848D90E0BF
:1003900001968F739927848FA689B7892C93A0899A
:1003A000B1898C91837080648C93938D848D981324
:1003B00006C00288F389E02D80818F7D80830895B7
:1003C000EF92FF920F931F93CF93DF93EC0181E0A5
:1003D000888F9B8D8C8D981305C0E889F989808161
:1003E00085FD26C0F62E0B8D10E00F5F1F4F0F739B
:1003F0001127E02E8C8DE8120CC00FB607FCFACF47
:10040000E889F989808185FFF5CFCE010E94BE0180
:10041000F1CF8B8DFE01E80FF11DE35AFF4FF08203
:100420009FB7F8940B8FEA89FB89808180620AC0AC
:100430009FB7F894EE89FF896083E889F989808104
:100440008370806480839FBF81E090E0DF91CF91D3
:100450001F910F91FF90EF900895CF93DF93EC01E0
:10046000888D8823C9F0EA89FB89808185FD05C0D4
:10047000A889B9898C9186FD0FC00FB607FCF5CF0E
:10048000808185FFF2CFA889B9898C9185FFEDCF56
:10049000CE010E94BE01E7CFDF91CF910895833056
:1004A00081F028F4813099F08230A1F008958730EE
:1004B000A9F08830B9F08430D1F4809180008F7D2C
:1004C00003C0809180008F7780938000089584B569
:1004D0008F7702C084B58F7D84BD08958091B00070
:1004E0008F7703C08091B0008F7D8093B000089516
:1004F0003FB7F8948091B0019091B101A091B20101
:10050000B091B30126B5A89B05C02F3F19F0019605
:10051000A11DB11D3FBFBA2FA92F982F8827820F89
:10052000911DA11DB11DBC01CD0142E0660F771FD9
:10053000881F991F4A95D1F7089508952091B60113
:100540003091B7012817390771F49091B401809167
:10055000B501981741F0E091B401F0E0E159FE4F88
:10056000808190E008958FEF9FEF089508951F9385
:10057000CF93DF93DC015C968D919C915D97009702
:1005800039F421E030E013963C932E9312973BC050
:100590005196ED91FC91529750962C915097322F95
:1005A00030951FB75E964C915E97742F727041FD27
:1005B0006095F8944081772311F0422B01C04323CA
:1005C0004083EC012197F1F748E0508160FF02C0C1
:1005D000522B01C053235083EC012197F1F766950C
:1005E000415099F78081772319F08323808302C0DB
:1005F000282B20831FBF5C968D919C915D9701975E
:10060000F1F781E090E0DF91CF911F910895209163
:10061000B6013091B7012817390771F48091B501FF
:100620002091B40190E0805C9F4F821B910960E4AF
:1006300070E00E94370D089580E090E008952091C9
:10064000B6013091B70128173907B9F49091B40178
:100650008091B501981789F0E091B401F0E0E1597B
:10066000FE4F80812091B40130E02F5F3F4F2F7308
:1006700033272093B40190E008958FEF9FEF089502
:10068000089580E090E008952091070130910801DD
:1006900080910001909101012817390744F081E011
:1006A0008093C20110920801109207010895809171
:1006B000070190910801019690930801809307012A
:1006C000089587EC91E00E94A801892B29F187EC1D
:1006D00091E00E9486018136F9F48BE391E00E945B
:1006E000670760E070E08CE40E94F30760E070E070
:1006F000CB010E944F08811103C08FEF9FEF0AC00A
:1007000010928802809184028B30B9F78091860222
:10071000909187020C94DB0708950E94B401811127
:100720000C94610308950E94650D1F920F920FB6FD
:100730000F9211242F933F934F935F936F937F9367
:100740008F939F93AF93BF93EF93FF9387EC91E0C9
:100750000E94BE01FF91EF91BF91AF919F918F9148
:100760007F916F915F914F913F912F910F900FBEAD
:100770000F901F9018951F920F920FB60F92112491
:100780002F938F939F93EF93FF93E091D701F09175
:10079000D8018081E091DD01F091DE0182FD12C07F
:1007A00090818091E0018F5F8F732091E10182172A
:1007B00051F0E091E001F0E0E953FE4F958F809316
:1007C000E00101C08081FF91EF919F918F912F9166
:1007D0000F900FBE0F901F9018951F93CF93DF932C
:1007E000282F30E0F901E654FF4F8491F901EF57CB
:1007F000FD4FD491F901E359FD4FC491CC23C1F0D1
:10080000162F81110E944F02EC2FF0E0EE0FFF1F18
:10081000ED59FD4FA591B4919FB7F894111104C003
:100820008C91D095D82302C0EC91DE2BDC939FBF36
:10083000DF91CF911F910895CF93DF9390E0FC015A
:10084000EF57FD4F2491FC01E359FD4F849188231C
:1008500061F190E0880F991FFC01E055FF4FC591B1
:10086000D491FC01ED59FD4FA591B491611109C0DE
:100870009FB7F8948881209582238883EC912E235A
:100880000BC0623061F49FB7F8948881322F3095A5
:1008900083238883EC912E2B2C939FBF06C08FB7A8
:1008A000F894E8812E2B28838FBFDF91CF91089594
:1008B0008F929F92AF92BF92CF92DF92EF92FF9270
:1008C0006B017C010E9478024B015C01C114D104D0
:1008D000E104F104F1F00E947802DC01CB018819F7
:1008E0009909AA09BB09883E9340A105B10570F397
:1008F00021E0C21AD108E108F10888EE880E83E0F1
:10090000981EA11CB11CC114D104E104F10419F713
:10091000DDCFFF90EF90DF90CF90BF90AF909F9092
:100920008F900895CF92DF92EF92FF92CF93DF9353
:100930006AE070E080E090E00E945804ECEBF0E0A8
:100940008491E3E8F2E0D491EFE6F2E0C491CC23A5
:1009500079F081110E944F02EC2FF0E0EE0FFF1FA3
:10096000E75AFD4FA591B491EC91ED2381E009F494
:1009700080E0817080936E0180916E0181113AC098
:10098000C091BF01D091C001C090B801D090B90111
:100990000D2C000CEE08FF0882E0C816D104E1041B
:1009A000F10484F00E947D0CA701960121503109C9
:1009B000410951090E94D40CDC01CB010196A11D13
:1009C000B11D04C081E090E0A0E0B0E09093C001D0
:1009D0008093BF018091BF019091C001C817D907D2
:1009E00099F28091BF019091C0010E94DB0781E0E4
:1009F0008093C101DF91CF91FF90EF90DF90CF9076
:100A000008951F920F920FB60F9211242F933F93C8
:100A10008F939F93AF93BF938091C3019091C40133
:100A2000A091C501B091C6013091AF0123E0230F21
:100A30002D3720F40196A11DB11D05C026E8230F16
:100A40000296A11DB11D2093AF018093C301909325
:100A5000C401A093C501B093C6018091B0019091EB
:100A6000B101A091B201B091B3010196A11DB11DD8
:100A70008093B0019093B101A093B201B093B30100
:100A8000BF91AF919F918F913F912F910F900FBE8A
:100A90000F901F9018951F920F920FB60F9211246E
:100AA0002F933F934F935F936F937F938F939F9376
:100AB000AF93BF93EF93FF93E0910501F09106018F
:100AC0000995FF91EF91BF91AF919F918F917F9188
:100AD0006F915F914F913F912F910F900FBE0F90AB
:100AE0001F9018951F920F920FB60F9211242F93FB
:100AF0003F934F935F936F937F938F939F93AF93A6
:100B0000BF93EF93FF93E0910301F09104010995E6
:100B1000FF91EF91BF91AF919F918F917F916F91D5
:100B20005F914F913F912F910F900FBE0F901F90AB
:100B300018951F920F920FB60F9211242F933F9387
:100B40004F935F936F937F938F939F93AF93BF93D5
:100B5000EF93FF93E091BA01F091BB010995FF91EA
:100B6000EF91BF91AF919F918F917F916F915F9125
:100B70004F913F912F910F900FBE0F901F9018959E
:100B80001F920F920FB60F9211242F933F934F9302
:100B90005F936F937F938F939F93AF93BF93EF93E5
:100BA000FF93E091B601F091B701309709F451C07D
:100BB000968DA685B785858591FF04C09C91892374
:100BC00029F447C09C91892309F043C0A389B489C3
:100BD0009C918589809589238C9386899789019733
:100BE000F1F7608D718DA685B785558538E020E0D9
:100BF000CB010197F1F7822F90E095958795282FEB
:100C00004C91452309F02068315091F7868D81FD84
:100C100020958091B50190E001968F7399273091CE
:100C2000B401381749F0A091B501B0E0A159BE4F09
:100C30002C938093B50103C0868D8160868F828D51
:100C4000938D0197F1F7A389B4899C918589892BAC
:100C50008C93FF91EF91BF91AF919F918F917F9175
:100C60006F915F914F913F912F910F900FBE0F9019
:100C70001F901895CF92DF92EF92FF920F931F93E0
:100C8000CF93DF936C017A018B01C0E0D0E0CE15E9
:100C9000DF0581F0D8016D918D01D601ED91FC91B8
:100CA0000190F081E02DC6010995892B11F0219664
:100CB000EECF7E01C701DF91CF911F910F91FF9081
:100CC000EF90DF90CF900895CF9380916402909140
:100CD0006502DC01ED91FC910084F185E02D099520
:100CE000892B09F4B9C060E070E0CB010E94580480
:100CF000C09182028091640290916502DC01ED91C5
:100D0000FC910284F385E02DC11108C00995809300
:100D10006E028E37D1F6809182029AC00995EC2F2F
:100D2000F0E0EC59FD4F8287809182028230A1F081
:100D30008930C1F0813009F08BC090916F029F3FE4
:100D400009F486C01092820281E08093840210929E
:100D5000870210928602B1C090917002963009F419
:100D600077C0F0CF809177028F3E61F7EFE6F2E037
:100D700085E792E020E030E04191240F311D8E178D
:100D80009F07D1F78091750290E0982F88274091B6
:100D90007602840F911D31952195310982179307B1
:100DA00089F610928202E0917102E13409F44DC09B
:100DB000E09385028091730290E0982F882720911C
:100DC0007402820F911D90938702809386024E2FAA
:100DD00050E0FA01FA97E631F10570F5EE5BFF4F4E
:100DE0000C944B0D85E022C080FF02C089E01EC03C
:100DF00081FF02C084E01AC083709927892B09F40F
:100E000062C08AE013C080FF02C087E00FC081FF8C
:100E10005AC082E00BC080FF02C088E007C081FF9B
:100E200052C083E003C086E001C08BE0809384025F
:100E300081E08093880247C081E080938402109211
:100E400087021092860280938802109289023BC02A
:100E50008F5F8093820239CF80918902882399F134
:100E60002FB7F8948091C3019091C401A091C5015E
:100E7000B091C6012FBF4091660250916702609108
:100E8000680270916902841B950BA60BB70B409109
:100E90006A0250916B0260916C0270916D0284172E
:100EA0009507A607B70778F0109282021092840285
:100EB000109287021092860281E08093880210923D
:100EC000890280E002C080918802CF910895009746
:100ED00069F0FC0101900020E9F73197AF01481B50
:100EE000590BBC0187EC91E00C943A0680E090E04D
:100EF00008958F929F92AF92BF920F931F93CF93BB
:100F0000DF93CDB7DEB7A1970FB6F894DEBF0FBE63
:100F1000CDBF19A2423008F44AE08E010F5D1F4F89
:100F2000842E912CA12CB12CA50194010E94060DB8
:100F3000E62FB901CA0101501109EA3014F4E05D4D
:100F400001C0E95CD801EC93232B242B252B61F7FE
:100F5000C8010E946707A1960FB6F894DEBF0FBEC6
:100F6000CDBFDF91CF911F910F91BF90AF909F9018
:100F70008F900895CF92DF92EF92FF92CF93DF93FD
:100F80006B017C016DE287EC91E00E94E001EC01D5
:100F900066277727CB016C197D098E099F094AE0E6
:100FA0000E9479078C0F9D1FDF91CF91FF90EF90EA
:100FB000DF90CF900895CF93DF93BC01990F880BFA
:100FC000990B97FF03C00E94BA0703C04AE00E9432
:100FD0007907EC0183E591E00E9467078C0F9D1F64
:100FE000DF91CF91089580937B0270937D0260938F
:100FF0007E02E9E7F2E02FE732E080E090E0419105
:10100000840F911D2E173F07D1F791958195910976
:1010100090937F028093800280917C02882361F00C
:1010200080918902882341F060E070E0CB010E944A
:1010300058040E946406F4CF809164029091650286
:10104000DC01ED91FC910280F381E02D4AE050E05B
:1010500068E772E009952FB7F8948091C3019091E9
:10106000C401A091C501B091C6012FBF8093660253
:1010700090936702A0936802B093690280917C020A
:1010800091E0811101C090E090938902811106C026
:101090006AE070E080E090E00C94580408958F922C
:1010A0009F92AF92BF92CF92DF92EF92FF926B012D
:1010B0007C018FB7F8948090C3019090C401A090F8
:1010C000C501B090C6018FBFC114D104E104F10481
:1010D00041F4C0906A02D0906B02E0906C02F090F4
:1010E0006D020E94640681111AC09FB7F894409166
:1010F000C3015091C4016091C5017091C6019FBFA9
:10110000481959096A097B09C416D506E606F70687
:1011100030F060E070E0CB010E945804E2CFFF9015
:10112000EF90DF90CF90BF90AF909F908F900895F9
:1011300060E070E088E40E94F30760E070E0CB01BB
:101140000E944F08811103C08FEF9FEF0895109206
:101150008802809184028B30B9F780918602909149
:10116000870208950F931F93CF93DF938C01C0E004
:10117000D0E0F801EC0FFD1F6491662341F087EC8D
:1011800091E00E94E001892B11F02196F2CFCE016F
:10119000DF91CF911F910F910895CF93DF930E941C
:1011A000B208EC0183E591E00E9467078C0F9D1F58
:1011B000DF91CF910895789484B5826084BD84B521
:1011C000816084BD85B5826085BD85B5816085BD42
:1011D00080916E00816080936E00109281008091FA
:1011E0008100826080938100809181008160809382
:1011F0008100809180008160809380008091B100A7
:1012000084608093B1008091B00081608093B000D1
:1012100080917A00846080937A0080917A00826065
:1012200080937A0080917A00816080937A00809127
:101230007A00806880937A001092C10083E08093E6
:10124000020180EC80937C0080917A00806480931E
:101250007A0080917A0086FDFCCF609178008091C1
:10126000790070E0782B072E000C880B990B611524
:1012700071058105910511F00E94CB0C62E082E0BE
:101280000E941C0482E994E090930401809303017E
:10129000809169008C7F826080936900E89A61E0A8
:1012A0008DE00E941C0480E18093810010928000F8
:1012B00084E08093BE0182E19AE79093BD01809320
:1012C000BC01909387008093860084E18093810025
:1012D00084E493E09093BB018093BA0181E0809312
:1012E0006F001092A5021092A4021092A302109215
:1012F000A2021092A1021092A0028DE991E09093B7
:10130000A7028093A60290919602963108F058C0E9
:101310002DEB30E03093A1022093A0022BE931E0C5
:101320003093A3022093A2022CE231E03093A50275
:101330002093A40240916800983058F031E09E302C
:1013400008F430E021E0822F01C0880F3A95EAF7D7
:1013500001C084E0842B80936800983038F09E3080
:1013600040F0963148F020E030E008C02DE630E053
:1013700005C02BE630E002C02CE630E030939E0240
:1013800020939D02983030F481E001C0880F9A9537
:10139000EAF70EC0292F30E09E3018F428503109AA
:1013A00002C02E50310981E001C0880F2A95EAF76A
:1013B00080939F028091A6029091A7020197F1F776
:1013C0008091A4029091A502892B49F1E091B60188
:1013D000F091B70182E0EA38F80709F1309739F067
:1013E000A389B4899C918589809589238C93809168
:1013F000A8028E7F8093A8021092B5011092B401CA
:101400008AE892E09093B7018093B601E0919D0243
:10141000F0919E02908180919F02892B8083E091C0
:10142000D701F091D80182E08083E091D301F0915F
:10143000D4011082E091D501F091D60187E6808336
:101440001092DF01E091DB01F091DC0186E0808306
:10145000E091D901F091DA01808180618083E0918F
:10146000D901F091DA01808188608083E091D9010F
:10147000F091DA01808180688083E091D901F09158
:10148000DA0180818F7D808383E591E00E94670788
:1014900084E691E00E94CD0883E391E00E94CD08AC
:1014A00061E08DE00E94ED038AE892E0909365028E
:1014B0008093640281E080937C0260E070E08CE0C5
:1014C0000E94F30760ED77E080E090E00E944F0813
:1014D00068EC70E080E090E00E945804109288026E
:1014E00080918402843041F58EEC90E00E94CD081A
:1014F00064E170E086E00E94F30760E070E087E05E
:101500000E94F30762E070E089E00E94F30768EC54
:1015100070E080E090E00E94580486E591E00E942F
:1015200067070E9498080E94DB070E949808909322
:10153000B9018093B80152C08930B1F282E291E0E2
:101540000E94CD0881E091E00E94CD0884EE90E0F9
:101550000E94CD080AE812E0C1E0109365020093F2
:101560006402C0937C0260E070E08CE00E94F307AC
:1015700060ED77E080E090E00E944F0868EC70E05A
:1015800080E090E00E9458041092880280918402CA
:10159000843009F4A9CF893001F7A6CF10928802D0
:1015A000C0918602D0918702E09184028E2F90E054
:1015B0008730910538F18091C101882369F010923C
:1015C000C10110920801109207016091BF01709152
:1015D000C00183E00E94F3070E948D038091C20145
:1015E0008823E1F287E691E00E94670783E591E0B6
:1015F0000E9467071092C20160E070E086E10E94DD
:10160000F307CCCFFC01EC5CFF4F0C944B0D8FE447
:1016100092E041C082E492E03EC083E392E03BC0AE
:1016200085E292E038C088E192E035C080E192E046
:101630000E94B208BE01DD0F880B990B97FF03C013
:101640000E94BA0703C04AE00E94790780E092E056
:1016500022C081EF91E00E94B208FE013197E7308D
:10166000F10508F0A8CFE55CFF4F0C944B0D82EE1E
:1016700091E011C089ED91E00EC089EC91E00BC0C2
:1016800085EB91E008C08DE991E005C08CE891E020
:1016900002C08FE791E00E94CD088DCF8DE291E0EE
:1016A00090938B0280938A028091B6019091B7014A
:1016B0008A58924071F4E0919D02F0919E029081CF
:1016C00080919F028095892380831092B7011092A8
:1016D000B60108951092CA011092C90188EE93E0F4
:1016E000A0E0B0E08093CB019093CC01A093CD011A
:1016F000B093CE012BE131E03093C8012093C701B4
:1017000025EC30E03093D4012093D30124EC30E079
:101710003093D6012093D50120EC30E03093D801EE
:101720002093D70121EC30E03093DA012093D901E6
:1017300022EC30E03093DC012093DB0126EC30E03A
:101740003093DE012093DD011092E0011092E1015F
:101750001092E2011092E30110928D0210928C021D
:1017600080938E0290938F02A0939002B093910287
:101770008DE291E090938B0280938A021092A102F5
:101780001092A0021092A3021092A2021092A5023F
:101790001092A4021092A7021092A6026091A802D1
:1017A0006E7F6D7F6093A8026695617081E0682707
:1017B0008BE00E94ED0361E08BE00E941C04ECE8EA
:1017C000F2E0E491E0939A02E8E7F2E0E491F0E0DD
:1017D000EE0FFF1FED59FD4F8591949190939C0260
:1017E00080939B0260E08AE00E941C048091A80222
:1017F00081FD04C061E08AE00E94ED038AE08093ED
:101800009602EBE8F2E0E491E0939702E7E7F2E07A
:10181000E491F0E0EE0FFF1FE75AFD4F2591349160
:10182000309399022093980244EF51E060E070E019
:1018300040936A0250936B0260936C0270936D0246
:10184000EDE0F1E0A8E7B2E001900D928A95E1F7B2
:101850001092820282E0809383021092880210929A
:10186000890208958F929F92AF92BF92CF92DF929A
:10187000EF92FF92CF93DF93EC01688179818A81A7
:101880009B81611571058105910521F464E279ED73
:101890008BE597E02DE133EF41E050E00E94D40C5E
:1018A00049015A019B01AC01A7EAB1E40E94F30C83
:1018B0006B017C01ACEEB4EFA50194010E94010D17
:1018C000DC01CB018C0D9D1DAE1DBF1DB7FF03C0FC
:1018D0000197A109B04888839983AA83BB83BC017F
:1018E000CD019F77DF91CF91FF90EF90DF90CF9068
:1018F000BF90AF909F908F9008958F929F92AF92DC
:10190000BF92CF92DF92EF92FF92609109017091A6
:101910000A0180910B0190910C01611571058105FF
:10192000910521F464E279ED8BE597E02DE133EF49
:1019300041E050E00E94D40C49015A019B01AC01E6
:10194000A7EAB1E40E94F30C6B017C01ACEEB4EFAA
:10195000A50194010E94010DDC01CB018C0D9D1DA0
:10196000AE1DBF1DB7FF03C00197A109B04880930A
:10197000090190930A01A0930B01B0930C01BC01E3
:10198000CD019F77FF90EF90DF90CF90BF90AF9009
:101990009F908F9008956093090170930A0180933E
:1019A0000B0190930C010895052E97FB1EF40094F3
:1019B0000E94EB0C57FD07D00E94060D07FC03D0D8
:1019C0004EF40C94EB0C50954095309521953F4F7B
:1019D0004F4F5F4F089590958095709561957F4F1B
:1019E0008F4F9F4F08950E94280DA59F900DB49F83
:1019F000900DA49F800D911D11240895B7FF0C94A4
:101A0000F30C0E94F30C821B930B0895A1E21A2E93
:101A1000AA1BBB1BFD010DC0AA1FBB1FEE1FFF1F92
:101A2000A217B307E407F50720F0A21BB30BE40BE2
:101A3000F50B661F771F881F991F1A9469F7609529
:101A40007095809590959B01AC01BD01CF010895E3
:101A5000A29FB001B39FC001A39F700D811D1124EF
:101A6000911DB29F700D811D1124911D089597FB4A
:101A7000072E16F4009407D077FD09D00E94510D6F
:101A800007FC05D03EF4909581959F4F0895709581
:101A900061957F4F0895EE0FFF1F0590F491E02DA3
:101AA0000994AA1BBB1B51E107C0AA1FBB1FA617A5
:101AB000B70710F0A61BB70B881F991F5A95A9F7F7
:101AC00080959095BC01CD01089581E090E0F89457
:101AD0000C946A0D11E0CCE4D1E004C0FE010E9438
:0E1AE0004B0D2196CD34D107C9F7F894FFCFF6
:101AEE001E00019D029D020100010000007EFF0606
:101AFE00000100000000EF00000000E0013A067750
:101B0E00012D02A80186019A0100000000B7023AD9
:101B1E00064103B60207031F039E0272656164430A
:101B2E00757272656E7446696C654E756D6265721E
:101B3E003A20000D0A007265616446696C65436F58
:0E1B4E00756E74733A20007061736F31300051
:107800000C94343C0C94513C0C94513C0C94513CE1
:107810000C94513C0C94513C0C94513C0C94513CB4
:107820000C94513C0C94513C0C94513C0C94513CA4
:107830000C94513C0C94513C0C94513C0C94513C94
:107840000C94513C0C94513C0C94513C0C94513C84
:107850000C94513C0C94513C0C94513C0C94513C74
:107860000C94513C0C94513C11241FBECFEFD8E036
:10787000DEBFCDBF11E0A0E0B1E0ECE9FFE702C060
:1078800005900D92A230B107D9F712E0A2E0B1E065
:1078900001C01D92AD30B107E1F70E942D3D0C945F
:1078A000CC3F0C94003C982F959595959595959582
:1078B000905D8F708A307CF0282F295A8091C0000B
:1078C00085FFFCCF9093C6008091C00085FFFCCF60
:1078D0002093C6000895282F205DF0CF982F809127
:1078E000C00085FFFCCF9093C6000895EF92FF92F1
:1078F0000F931F93EE24FF2487018091C00087FD22
:1079000017C00894E11CF11C011D111D81E4E8164B
:1079100082E4F8068FE0080780E0180770F3E09132
:107920000401F091050109958091C00087FFE9CF1E
:107930008091C6001F910F91FF90EF9008950E94D3
:10794000763C982F8091C00085FFFCCF9093C600B5
:1079500091362CF490330CF09053892F089597555D
:10796000892F08951F930E949F3C182F0E949F3CCF
:107970001295107F810F1F9108951F93182F882350
:1079800021F00E94763C1150E1F71F9108951F935A
:10799000182F0E94763C803249F0809103018F5F5E
:1079A000809303018530C1F01F9108958091C0003C
:1079B00085FFFCCF84E18093C6008091C00085FFE5
:1079C000FCCF1093C6008091C00085FFFCCF80E102
:1079D0008093C6001F910895E0910401F091050184
:1079E00009951F9108950E94763C803241F0809164
:1079F00003018F5F80930301853081F008958091AA
:107A0000C00085FFFCCF84E18093C6008091C00058
:107A100085FFFCCF80E18093C6000895E0910401CA
:107A2000F09105010995089540E951E08823A1F0FE
:107A30002D9A28EE33E0FA013197F1F721503040CA
:107A4000D1F72D9828EE33E0FA013197F1F7215064
:107A50003040D1F7815061F708953F924F925F9285
:107A60006F927F928F929F92AF92BF92CF92DF924E
:107A7000EF92FF920F931F93CF93DF93000080E16B
:107A80008093C4001092C50088E18093C10086E015
:107A90008093C2005098589A259A81E00E94143D24
:107AA00024E1F22E9EE1E92E85E9D82E0FE0C02ECA
:107AB00010E1B12EAA24A394B1E49B2EA6E58A2E50
:107AC000F2E57F2EE0E26E2E79E4572E63E5462E36
:107AD00050E5352E0E94763C8033B1F18133B9F107
:107AE000803409F46FC0813409F476C0823409F41B
:107AF00085C0853409F488C0803531F1823521F1A3
:107B0000813511F1853509F485C0863509F48DC0BC
:107B1000843609F496C0843709F403C1853709F423
:107B200072C1863709F466C0809103018F5F80932C
:107B30000301853079F6E0910401F0910501099582
:107B40000E94763C803351F60E94F33CC3CF0E94E2
:107B5000763C803249F78091C00085FFFCCFF092DF
:107B6000C6008091C00085FFFCCF9092C600809136
:107B7000C00085FFFCCF8092C6008091C00085FFC9
:107B8000FCCF7092C6008091C00085FFFCCF609250
:107B9000C6008091C00085FFFCCF5092C600809146
:107BA000C00085FFFCCF4092C6008091C00085FFD9
:107BB000FCCF3092C6008091C00085FFFCCFB09210
:107BC000C60088CF0E94763C863808F4BDCF0E945C
:107BD000763C0E94F33C7ECF0E94763C803809F4CC
:107BE0009CC0813809F40BC1823809F43CC1883942
:107BF00009F48FC080E00E94C73C6CCF84E10E94F2
:107C0000BD3C0E94F33C66CF85E00E94BD3C0E94D3
:107C1000F33C60CF0E94763C809306010E94763C44
:107C2000809307010E94F33C55CF0E94763C80333D
:107C300009F41DC183E00E94BD3C80E00E94C73C66
:107C400049CF0E94763C809309020E94763C809343
:107C5000080280910C028E7F80930C020E94763C79
:107C6000853409F415C18091080290910902892B8D
:107C700089F000E010E00E94763CF801E85FFE4FDA
:107C800080830F5F1F4F80910802909109020817AF
:107C9000190788F30E94763C803209F045CF809125
:107CA0000C0280FF01C16091060170910701660F0F
:107CB000771F7093070160930601A0910802B091AD
:107CC00009021097C9F0E8E0F1E09B01AD014E0F09
:107CD0005F1FF999FECF32BD21BD819180BDFA9A17
:107CE000F99A2F5F3F4FE417F50799F76A0F7B1F4B
:107CF00070930701609306018091C00085FFFCCF5F
:107D0000F092C6008091C00085FFFCCFB092C60003
:107D1000E1CE83E00E94C73CDDCE82E00E94C73CFA
:107D2000D9CE0E94763C809309020E94763C8093D3
:107D300008028091060190910701880F991F909386
:107D40000701809306010E94763C853409F4A6C0A1
:107D500080910C028E7F80930C020E94763C8032D0
:107D600009F0B8CE8091C00085FFFCCFF092C6002C
:107D7000609108027091090261157105B9F140E046
:107D800050E080910C02A82FA170B82FB27011C0E2
:107D9000BB2309F45CC0E0910601F0910701319624
:107DA000F0930701E09306014F5F5F4F46175707B7
:107DB000E8F4AA2369F3F999FECF209106013091E6
:107DC000070132BD21BDF89A90B58091C00085FFB2
:107DD000FCCF9093C6002F5F3F4F30930701209355
:107DE00006014F5F5F4F4617570718F38091C00099
:107DF00085FDE5CE8091C00085FFF8CFE0CE81E023
:107E00000E94C73C67CE0E94763C803209F08CCE3F
:107E10008091C00085FFFCCFF092C6008091C00029
:107E200085FFFCCFE092C6008091C00085FFFCCFAB
:107E3000D092C6008091C00085FFFCCFC092C600E2
:107E40008091C00085FFFCCFB092C60043CEE09188
:107E50000601F091070194918091C00085FFFCCF4D
:107E60009093C6009CCF80E10E94C73C33CE0E9415
:107E7000763C0E94763C182F0E94763C112309F430
:107E800083C0113009F484C08FE00E94C73C22CE29
:107E900080910C02816080930C02E5CE80910C02EF
:107EA000816080930C0259CF809107018823880F4D
:107EB000880B8A2180930B02809106019091070123
:107EC000880F991F90930701809306018091080203
:107ED00080FF09C080910802909109020196909359
:107EE000090280930802F894F999FECF1127E091D6
:107EF0000601F0910701C8E0D1E08091080290915D
:107F00000902103091F40091570001700130D9F34B
:107F100003E000935700E89500915700017001308D
:107F2000D9F301E100935700E89509901990009169
:107F3000570001700130D9F301E000935700E89534
:107F40001395103498F011270091570001700130FB
:107F5000D9F305E000935700E895009157000170B0
:107F60000130D9F301E100935700E895329602976A
:107F700009F0C7CF103011F00296E5CF112480919F
:107F8000C00085FFB9CEBCCE8EE10E94C73CA2CD19
:0C7F900085E90E94C73C9ECDF894FFCF0D
:027F9C00800063
:040000030000780081
:00000001FF